{
  "_format": "hh-sol-artifact-1",
  "contractName": "GrievanceHub",
  "sourceName": "contracts/GrievanceHub.sol",
  "abi": [
    {
      "inputs": [
        {
          "internalType": "address",
          "name": "owner",
          "type": "address"
        },
        {
          "internalType": "address",
          "name": "trustedForwarder",
          "type": "address"
        }
      ],
      "stateMutability": "nonpayable",
      "type": "constructor"
    },
    {
      "inputs": [
        {
          "internalType": "uint256",
          "name": "grievanceId",
          "type": "uint256"
        },
        {
          "internalType": "uint8",
          "name": "count",
          "type": "uint8"
        }
      ],
      "name": "DisputeLimitExceeded",
      "type": "error"
    },
    {
      "inputs": [
        {
          "internalType": "bytes32",
          "name": "hash",
          "type": "bytes32"
        }
      ],
      "name": "EmptyHash",
      "type": "error"
    },
    {
      "inputs": [
        {
          "internalType": "uint256",
          "name": "grievanceId",
          "type": "uint256"
        },
        {
          "internalType": "address",
          "name": "citizen",
          "type": "address"
        }
      ],
      "name": "FeedbackAlreadySubmitted",
      "type": "error"
    },
    {
      "inputs": [
        {
          "internalType": "uint256",
          "name": "grievanceId",
          "type": "uint256"
        }
      ],
      "name": "GrievanceNotFound",
      "type": "error"
    },
    {
      "inputs": [
        {
          "internalType": "uint256",
          "name": "areaId",
          "type": "uint256"
        }
      ],
      "name": "InvalidAreaId",
      "type": "error"
    },
    {
      "inputs": [
        {
          "internalType": "enum GrievanceHub.Status",
          "name": "current",
          "type": "uint8"
        },
        {
          "internalType": "enum GrievanceHub.Status",
          "name": "required",
          "type": "uint8"
        }
      ],
      "name": "InvalidStatus",
      "type": "error"
    },
    {
      "inputs": [
        {
          "internalType": "address",
          "name": "citizen",
          "type": "address"
        },
        {
          "internalType": "uint256",
          "name": "month",
          "type": "uint256"
        },
        {
          "internalType": "uint8",
          "name": "currentCount",
          "type": "uint8"
        }
      ],
      "name": "MonthlyLimitReached",
      "type": "error"
    },
    {
      "inputs": [
        {
          "internalType": "address",
          "name": "citizen",
          "type": "address"
        },
        {
          "internalType": "address",
          "name": "expected",
          "type": "address"
        }
      ],
      "name": "UnauthorizedCitizen",
      "type": "error"
    },
    {
      "anonymous": false,
      "inputs": [
        {
          "indexed": true,
          "internalType": "uint256",
          "name": "grievanceId",
          "type": "uint256"
        },
        {
          "indexed": false,
          "internalType": "uint8",
          "name": "disputeCount",
          "type": "uint8"
        }
      ],
      "name": "EscalatedToAdminGovt",
      "type": "event"
    },
    {
      "anonymous": false,
      "inputs": [
        {
          "indexed": true,
          "internalType": "uint256",
          "name": "grievanceId",
          "type": "uint256"
        },
        {
          "indexed": true,
          "internalType": "address",
          "name": "citizen",
          "type": "address"
        },
        {
          "indexed": false,
          "internalType": "bytes32",
          "name": "feedbackHash",
          "type": "bytes32"
        },
        {
          "indexed": false,
          "internalType": "bool",
          "name": "resolved",
          "type": "bool"
        }
      ],
      "name": "FeedbackSubmitted",
      "type": "event"
    },
    {
      "anonymous": false,
      "inputs": [
        {
          "indexed": true,
          "internalType": "uint256",
          "name": "grievanceId",
          "type": "uint256"
        },
        {
          "indexed": true,
          "internalType": "address",
          "name": "headReviewer",
          "type": "address"
        }
      ],
      "name": "GrievanceAccepted",
      "type": "event"
    },
    {
      "anonymous": false,
      "inputs": [
        {
          "indexed": true,
          "internalType": "uint256",
          "name": "grievanceId",
          "type": "uint256"
        },
        {
          "indexed": true,
          "internalType": "address",
          "name": "citizen",
          "type": "address"
        },
        {
          "indexed": true,
          "internalType": "uint256",
          "name": "areaId",
          "type": "uint256"
        },
        {
          "indexed": false,
          "internalType": "bytes32",
          "name": "titleHash",
          "type": "bytes32"
        }
      ],
      "name": "GrievanceFiled",
      "type": "event"
    },
    {
      "anonymous": false,
      "inputs": [
        {
          "indexed": true,
          "internalType": "uint256",
          "name": "grievanceId",
          "type": "uint256"
        },
        {
          "indexed": true,
          "internalType": "uint256",
          "name": "projectId",
          "type": "uint256"
        }
      ],
      "name": "GrievanceLinkedToProject",
      "type": "event"
    },
    {
      "anonymous": false,
      "inputs": [
        {
          "indexed": true,
          "internalType": "uint256",
          "name": "grievanceId",
          "type": "uint256"
        },
        {
          "indexed": false,
          "internalType": "uint8",
          "name": "disputeCount",
          "type": "uint8"
        }
      ],
      "name": "GrievanceReopened",
      "type": "event"
    },
    {
      "anonymous": false,
      "inputs": [
        {
          "indexed": true,
          "internalType": "uint256",
          "name": "grievanceId",
          "type": "uint256"
        },
        {
          "indexed": true,
          "internalType": "address",
          "name": "validator",
          "type": "address"
        },
        {
          "indexed": false,
          "internalType": "bool",
          "name": "approved",
          "type": "bool"
        }
      ],
      "name": "GrievanceValidated",
      "type": "event"
    },
    {
      "anonymous": false,
      "inputs": [
        {
          "indexed": false,
          "internalType": "address",
          "name": "account",
          "type": "address"
        }
      ],
      "name": "Paused",
      "type": "event"
    },
    {
      "anonymous": false,
      "inputs": [
        {
          "indexed": true,
          "internalType": "bytes32",
          "name": "role",
          "type": "bytes32"
        },
        {
          "indexed": true,
          "internalType": "bytes32",
          "name": "previousAdminRole",
          "type": "bytes32"
        },
        {
          "indexed": true,
          "internalType": "bytes32",
          "name": "newAdminRole",
          "type": "bytes32"
        }
      ],
      "name": "RoleAdminChanged",
      "type": "event"
    },
    {
      "anonymous": false,
      "inputs": [
        {
          "indexed": true,
          "internalType": "bytes32",
          "name": "role",
          "type": "bytes32"
        },
        {
          "indexed": true,
          "internalType": "address",
          "name": "account",
          "type": "address"
        },
        {
          "indexed": true,
          "internalType": "address",
          "name": "sender",
          "type": "address"
        }
      ],
      "name": "RoleGranted",
      "type": "event"
    },
    {
      "anonymous": false,
      "inputs": [
        {
          "indexed": true,
          "internalType": "bytes32",
          "name": "role",
          "type": "bytes32"
        },
        {
          "indexed": true,
          "internalType": "address",
          "name": "account",
          "type": "address"
        },
        {
          "indexed": true,
          "internalType": "address",
          "name": "sender",
          "type": "address"
        }
      ],
      "name": "RoleRevoked",
      "type": "event"
    },
    {
      "anonymous": false,
      "inputs": [
        {
          "indexed": false,
          "internalType": "address",
          "name": "account",
          "type": "address"
        }
      ],
      "name": "Unpaused",
      "type": "event"
    },
    {
      "inputs": [],
      "name": "DEFAULT_ADMIN_ROLE",
      "outputs": [
        {
          "internalType": "bytes32",
          "name": "",
          "type": "bytes32"
        }
      ],
      "stateMutability": "view",
      "type": "function"
    },
    {
      "inputs": [],
      "name": "MAX_DISPUTE_COUNT",
      "outputs": [
        {
          "internalType": "uint8",
          "name": "",
          "type": "uint8"
        }
      ],
      "stateMutability": "view",
      "type": "function"
    },
    {
      "inputs": [],
      "name": "MAX_GRIEVANCES_PER_MONTH",
      "outputs": [
        {
          "internalType": "uint8",
          "name": "",
          "type": "uint8"
        }
      ],
      "stateMutability": "view",
      "type": "function"
    },
    {
      "inputs": [
        {
          "internalType": "uint256",
          "name": "grievanceId",
          "type": "uint256"
        }
      ],
      "name": "acceptValidated",
      "outputs": [],
      "stateMutability": "nonpayable",
      "type": "function"
    },
    {
      "inputs": [
        {
          "internalType": "uint256",
          "name": "grievanceId",
          "type": "uint256"
        },
        {
          "internalType": "uint256",
          "name": "feedbackIndex",
          "type": "uint256"
        },
        {
          "internalType": "bool",
          "name": "approve",
          "type": "bool"
        }
      ],
      "name": "approveFeedback",
      "outputs": [],
      "stateMutability": "nonpayable",
      "type": "function"
    },
    {
      "inputs": [
        {
          "internalType": "uint256",
          "name": "grievanceId",
          "type": "uint256"
        },
        {
          "internalType": "bool",
          "name": "approve",
          "type": "bool"
        }
      ],
      "name": "approveGrievance",
      "outputs": [],
      "stateMutability": "nonpayable",
      "type": "function"
    },
    {
      "inputs": [
        {
          "internalType": "uint256",
          "name": "",
          "type": "uint256"
        },
        {
          "internalType": "uint256",
          "name": "",
          "type": "uint256"
        }
      ],
      "name": "areaGrievances",
      "outputs": [
        {
          "internalType": "uint256",
          "name": "",
          "type": "uint256"
        }
      ],
      "stateMutability": "view",
      "type": "function"
    },
    {
      "inputs": [
        {
          "internalType": "address",
          "name": "",
          "type": "address"
        },
        {
          "internalType": "uint256",
          "name": "",
          "type": "uint256"
        }
      ],
      "name": "citizenGrievances",
      "outputs": [
        {
          "internalType": "uint256",
          "name": "",
          "type": "uint256"
        }
      ],
      "stateMutability": "view",
      "type": "function"
    },
    {
      "inputs": [
        {
          "internalType": "uint256",
          "name": "areaId",
          "type": "uint256"
        },
        {
          "internalType": "bytes32",
          "name": "titleHash",
          "type": "bytes32"
        },
        {
          "internalType": "bytes32",
          "name": "bodyHash",
          "type": "bytes32"
        }
      ],
      "name": "fileGrievance",
      "outputs": [
        {
          "internalType": "uint256",
          "name": "",
          "type": "uint256"
        }
      ],
      "stateMutability": "nonpayable",
      "type": "function"
    },
    {
      "inputs": [
        {
          "internalType": "uint256",
          "name": "areaId",
          "type": "uint256"
        }
      ],
      "name": "getAreaGrievances",
      "outputs": [
        {
          "internalType": "uint256[]",
          "name": "",
          "type": "uint256[]"
        }
      ],
      "stateMutability": "view",
      "type": "function"
    },
    {
      "inputs": [
        {
          "internalType": "address",
          "name": "citizen",
          "type": "address"
        }
      ],
      "name": "getCitizenGrievances",
      "outputs": [
        {
          "internalType": "uint256[]",
          "name": "",
          "type": "uint256[]"
        }
      ],
      "stateMutability": "view",
      "type": "function"
    },
    {
      "inputs": [
        {
          "internalType": "uint256",
          "name": "grievanceId",
          "type": "uint256"
        }
      ],
      "name": "getGrievance",
      "outputs": [
        {
          "components": [
            {
              "internalType": "uint256",
              "name": "id",
              "type": "uint256"
            },
            {
              "internalType": "address",
              "name": "citizen",
              "type": "address"
            },
            {
              "internalType": "uint256",
              "name": "areaId",
              "type": "uint256"
            },
            {
              "internalType": "bytes32",
              "name": "titleHash",
              "type": "bytes32"
            },
            {
              "internalType": "bytes32",
              "name": "bodyHash",
              "type": "bytes32"
            },
            {
              "internalType": "uint256",
              "name": "createdAt",
              "type": "uint256"
            },
            {
              "internalType": "enum GrievanceHub.Status",
              "name": "status",
              "type": "uint8"
            },
            {
              "internalType": "address",
              "name": "validator",
              "type": "address"
            },
            {
              "internalType": "address",
              "name": "headReviewer",
              "type": "address"
            },
            {
              "internalType": "uint8",
              "name": "disputeCount",
              "type": "uint8"
            },
            {
              "internalType": "uint256",
              "name": "linkedProjectId",
              "type": "uint256"
            }
          ],
          "internalType": "struct GrievanceHub.Grievance",
          "name": "",
          "type": "tuple"
        }
      ],
      "stateMutability": "view",
      "type": "function"
    },
    {
      "inputs": [
        {
          "internalType": "uint256",
          "name": "grievanceId",
          "type": "uint256"
        }
      ],
      "name": "getGrievanceFeedback",
      "outputs": [
        {
          "components": [
            {
              "internalType": "uint256",
              "name": "grievanceId",
              "type": "uint256"
            },
            {
              "internalType": "address",
              "name": "citizen",
              "type": "address"
            },
            {
              "internalType": "bytes32",
              "name": "feedbackHash",
              "type": "bytes32"
            },
            {
              "internalType": "bool",
              "name": "resolved",
              "type": "bool"
            },
            {
              "internalType": "uint256",
              "name": "submittedAt",
              "type": "uint256"
            },
            {
              "internalType": "address",
              "name": "validator",
              "type": "address"
            },
            {
              "internalType": "bool",
              "name": "approved",
              "type": "bool"
            }
          ],
          "internalType": "struct GrievanceHub.Feedback[]",
          "name": "",
          "type": "tuple[]"
        }
      ],
      "stateMutability": "view",
      "type": "function"
    },
    {
      "inputs": [
        {
          "internalType": "address",
          "name": "citizen",
          "type": "address"
        },
        {
          "internalType": "uint256",
          "name": "month",
          "type": "uint256"
        }
      ],
      "name": "getMonthlyCount",
      "outputs": [
        {
          "internalType": "uint8",
          "name": "",
          "type": "uint8"
        }
      ],
      "stateMutability": "view",
      "type": "function"
    },
    {
      "inputs": [
        {
          "internalType": "address",
          "name": "citizen",
          "type": "address"
        }
      ],
      "name": "getRemainingMonthlyGrievances",
      "outputs": [
        {
          "internalType": "uint8",
          "name": "",
          "type": "uint8"
        }
      ],
      "stateMutability": "view",
      "type": "function"
    },
    {
      "inputs": [
        {
          "internalType": "bytes32",
          "name": "role",
          "type": "bytes32"
        }
      ],
      "name": "getRoleAdmin",
      "outputs": [
        {
          "internalType": "bytes32",
          "name": "",
          "type": "bytes32"
        }
      ],
      "stateMutability": "view",
      "type": "function"
    },
    {
      "inputs": [],
      "name": "getTotalGrievances",
      "outputs": [
        {
          "internalType": "uint256",
          "name": "",
          "type": "uint256"
        }
      ],
      "stateMutability": "view",
      "type": "function"
    },
    {
      "inputs": [
        {
          "internalType": "bytes32",
          "name": "role",
          "type": "bytes32"
        },
        {
          "internalType": "address",
          "name": "account",
          "type": "address"
        }
      ],
      "name": "grantRole",
      "outputs": [],
      "stateMutability": "nonpayable",
      "type": "function"
    },
    {
      "inputs": [
        {
          "internalType": "address",
          "name": "",
          "type": "address"
        },
        {
          "internalType": "uint256",
          "name": "",
          "type": "uint256"
        }
      ],
      "name": "grievanceCountByMonth",
      "outputs": [
        {
          "internalType": "uint8",
          "name": "",
          "type": "uint8"
        }
      ],
      "stateMutability": "view",
      "type": "function"
    },
    {
      "inputs": [
        {
          "internalType": "uint256",
          "name": "",
          "type": "uint256"
        },
        {
          "internalType": "uint256",
          "name": "",
          "type": "uint256"
        }
      ],
      "name": "grievanceFeedbacks",
      "outputs": [
        {
          "internalType": "uint256",
          "name": "grievanceId",
          "type": "uint256"
        },
        {
          "internalType": "address",
          "name": "citizen",
          "type": "address"
        },
        {
          "internalType": "bytes32",
          "name": "feedbackHash",
          "type": "bytes32"
        },
        {
          "internalType": "bool",
          "name": "resolved",
          "type": "bool"
        },
        {
          "internalType": "uint256",
          "name": "submittedAt",
          "type": "uint256"
        },
        {
          "internalType": "address",
          "name": "validator",
          "type": "address"
        },
        {
          "internalType": "bool",
          "name": "approved",
          "type": "bool"
        }
      ],
      "stateMutability": "view",
      "type": "function"
    },
    {
      "inputs": [
        {
          "internalType": "uint256",
          "name": "",
          "type": "uint256"
        }
      ],
      "name": "grievances",
      "outputs": [
        {
          "internalType": "uint256",
          "name": "id",
          "type": "uint256"
        },
        {
          "internalType": "address",
          "name": "citizen",
          "type": "address"
        },
        {
          "internalType": "uint256",
          "name": "areaId",
          "type": "uint256"
        },
        {
          "internalType": "bytes32",
          "name": "titleHash",
          "type": "bytes32"
        },
        {
          "internalType": "bytes32",
          "name": "bodyHash",
          "type": "bytes32"
        },
        {
          "internalType": "uint256",
          "name": "createdAt",
          "type": "uint256"
        },
        {
          "internalType": "enum GrievanceHub.Status",
          "name": "status",
          "type": "uint8"
        },
        {
          "internalType": "address",
          "name": "validator",
          "type": "address"
        },
        {
          "internalType": "address",
          "name": "headReviewer",
          "type": "address"
        },
        {
          "internalType": "uint8",
          "name": "disputeCount",
          "type": "uint8"
        },
        {
          "internalType": "uint256",
          "name": "linkedProjectId",
          "type": "uint256"
        }
      ],
      "stateMutability": "view",
      "type": "function"
    },
    {
      "inputs": [
        {
          "internalType": "bytes32",
          "name": "role",
          "type": "bytes32"
        },
        {
          "internalType": "address",
          "name": "account",
          "type": "address"
        }
      ],
      "name": "hasRole",
      "outputs": [
        {
          "internalType": "bool",
          "name": "",
          "type": "bool"
        }
      ],
      "stateMutability": "view",
      "type": "function"
    },
    {
      "inputs": [
        {
          "internalType": "uint256",
          "name": "grievanceId",
          "type": "uint256"
        }
      ],
      "name": "isEscalated",
      "outputs": [
        {
          "internalType": "bool",
          "name": "",
          "type": "bool"
        }
      ],
      "stateMutability": "view",
      "type": "function"
    },
    {
      "inputs": [
        {
          "internalType": "address",
          "name": "forwarder",
          "type": "address"
        }
      ],
      "name": "isTrustedForwarder",
      "outputs": [
        {
          "internalType": "bool",
          "name": "",
          "type": "bool"
        }
      ],
      "stateMutability": "view",
      "type": "function"
    },
    {
      "inputs": [
        {
          "internalType": "uint256",
          "name": "grievanceId",
          "type": "uint256"
        },
        {
          "internalType": "uint256",
          "name": "projectId",
          "type": "uint256"
        }
      ],
      "name": "linkToProject",
      "outputs": [],
      "stateMutability": "nonpayable",
      "type": "function"
    },
    {
      "inputs": [
        {
          "internalType": "uint256",
          "name": "grievanceId",
          "type": "uint256"
        }
      ],
      "name": "markResolved",
      "outputs": [],
      "stateMutability": "nonpayable",
      "type": "function"
    },
    {
      "inputs": [],
      "name": "pause",
      "outputs": [],
      "stateMutability": "nonpayable",
      "type": "function"
    },
    {
      "inputs": [],
      "name": "paused",
      "outputs": [
        {
          "internalType": "bool",
          "name": "",
          "type": "bool"
        }
      ],
      "stateMutability": "view",
      "type": "function"
    },
    {
      "inputs": [
        {
          "internalType": "bytes32",
          "name": "role",
          "type": "bytes32"
        },
        {
          "internalType": "address",
          "name": "account",
          "type": "address"
        }
      ],
      "name": "renounceRole",
      "outputs": [],
      "stateMutability": "nonpayable",
      "type": "function"
    },
    {
      "inputs": [
        {
          "internalType": "bytes32",
          "name": "role",
          "type": "bytes32"
        },
        {
          "internalType": "address",
          "name": "account",
          "type": "address"
        }
      ],
      "name": "revokeRole",
      "outputs": [],
      "stateMutability": "nonpayable",
      "type": "function"
    },
    {
      "inputs": [
        {
          "internalType": "uint256",
          "name": "grievanceId",
          "type": "uint256"
        },
        {
          "internalType": "bytes32",
          "name": "feedbackHash",
          "type": "bytes32"
        },
        {
          "internalType": "bool",
          "name": "resolved",
          "type": "bool"
        }
      ],
      "name": "submitFeedback",
      "outputs": [],
      "stateMutability": "nonpayable",
      "type": "function"
    },
    {
      "inputs": [
        {
          "internalType": "bytes4",
          "name": "interfaceId",
          "type": "bytes4"
        }
      ],
      "name": "supportsInterface",
      "outputs": [
        {
          "internalType": "bool",
          "name": "",
          "type": "bool"
        }
      ],
      "stateMutability": "view",
      "type": "function"
    },
    {
      "inputs": [],
      "name": "unpause",
      "outputs": [],
      "stateMutability": "nonpayable",
      "type": "function"
    }
  ],
  "bytecode": "0x60a06040523480156200001157600080fd5b506040516200274638038062002746833981016040819052620000349162000220565b6001805460ff191690556001600160a01b0381166080526200006660008051602062002726833981519152836200008e565b62000081600080516020620027268339815191528062000119565b50506001600255620002d7565b6200009a828262000164565b62000115576000828152602081815260408083206001600160a01b03851684529091529020805460ff19166001179055620000d46200018f565b6001600160a01b0316816001600160a01b0316837f2f8788117e7eff1d82e926ec794901d17c78024a50270940304540a733656f0d60405160405180910390a45b5050565b600082815260208190526040808220600101805490849055905190918391839186917fbd79b86ffe0ab8e8776151514217cd7cacd52c909f66475c3af44e129f0b00ff9190a4505050565b6000828152602081815260408083206001600160a01b038516845290915290205460ff165b92915050565b60006200019b620001a0565b905090565b6000368160146080519091506001600160a01b031633148015620001c45750808210155b15620001fb57600036620001d9838562000258565b620001e69282906200027a565b620001f191620002a6565b60601c9250505090565b339250505090565b80516001600160a01b03811681146200021b57600080fd5b919050565b600080604083850312156200023457600080fd5b6200023f8362000203565b91506200024f6020840162000203565b90509250929050565b818103818111156200018957634e487b7160e01b600052601160045260246000fd5b600080858511156200028b57600080fd5b838611156200029957600080fd5b5050820193919092039150565b6001600160601b03198135818116916014851015620002cf5780818660140360031b1b83161692505b505092915050565b60805161242c620002fa6000396000818161042e0152611b1c015261242c6000f3fe608060405234801561001057600080fd5b50600436106101fb5760003560e01c80638456cb591161011a578063b4a61fef116100ad578063e9a8735e1161007c578063e9a8735e14610561578063eadf2fcd14610574578063eb65470714610587578063eda191421461059a578063ef1f1d2f146105ad57600080fd5b8063b4a61fef146103a7578063bc94777514610528578063d547741f1461053b578063dd427f081461054e57600080fd5b806397fca282116100e957806397fca282146104d7578063a1de856e14610505578063a217fddf14610518578063aa4418051461052057600080fd5b80638456cb591461047c57806391d1485414610484578063944dc7231461049757806395370883146104b757600080fd5b806337ce555e1161019257806347853ee51161016157806347853ee51461040b578063572b6c051461041e5780635c975abb1461045e5780636e3605771461046957600080fd5b806337ce555e146103945780633c7f8740146103a75780633f4ba83a146103af5780634431d8fe146103b757600080fd5b8063248a9ca3116101ce578063248a9ca3146102a85780632f2ff15d146102d9578063356f1d75146102ec57806336568abe1461038157600080fd5b806301ffc9a714610200578063030623c41461022857806314836f6f1461024857806321fbcd5a14610293575b600080fd5b61021361020e366004611dd1565b6105c0565b60405190151581526020015b60405180910390f35b61023b610236366004611dfb565b6105d1565b60405161021f9190611e14565b610281610256366004611ec4565b6001600160a01b03919091166000908152600760209081526040808320938352929052205460ff1690565b60405160ff909116815260200161021f565b6102a66102a1366004611efe565b6106a0565b005b6102cb6102b6366004611dfb565b60009081526020819052604090206001015490565b60405190815260200161021f565b6102a66102e7366004611f33565b610ab5565b61036a6102fa366004611dfb565b600360208190526000918252604090912080546001820154600283015493830154600484015460058501546006860154600787015460089097015495976001600160a01b0395861697909694959394929360ff8084169461010090940482169391831692600160a01b900416908b565b60405161021f9b9a99989796959493929190611f97565b6102a661038f366004611f33565b610adf565b6102cb6103a2366004611ec4565b610b6d565b610281600381565b6102a6610b9e565b6103ca6103c536600461200c565b610bd3565b604080519788526001600160a01b0396871660208901528701949094529115156060860152608085015290911660a0830152151560c082015260e00161021f565b6102a661041936600461202e565b610c44565b61021361042c366004612051565b7f00000000000000000000000000000000000000000000000000000000000000006001600160a01b0390811691161490565b60015460ff16610213565b6102cb61047736600461200c565b610daa565b6102a6610dc6565b610213610492366004611f33565b610df8565b6104aa6104a5366004611dfb565b610e21565b60405161021f919061206c565b6104ca6104c5366004611dfb565b610e83565b60405161021f91906120b0565b6102816104e5366004611ec4565b600760209081526000928352604080842090915290825290205460ff1681565b6102a6610513366004611dfb565b610fe8565b6102cb600081565b6102cb611110565b6102cb61053636600461215f565b611126565b6102a6610549366004611f33565b611465565b61028161055c366004612051565b61148a565b6104aa61056f366004612051565b6114d2565b610213610582366004611dfb565b61153c565b6102a6610595366004611dfb565b611623565b6102a66105a8366004611efe565b61169a565b6102a66105bb36600461200c565b61177b565b60006105cb8261186e565b92915050565b606060046000838152602001908152602001600020805480602002602001604051908101604052809291908181526020016000905b828210156106955760008481526020908190206040805160e08101825260068602909201805483526001808201546001600160a01b0390811685870152600283015493850193909352600382015460ff908116151560608601526004830154608086015260059092015492831660a0850152600160a01b90920416151560c08301529083529092019101610606565b505050509050919050565b6106a86118a3565b60006106b26118eb565b600085815260036020526040812080549293509190036106ed57604051639ce2965d60e01b8152600481018690526024015b60405180910390fd5b60018101546001600160a01b0383811691161461073657600181015460405163ea83211960e01b81526001600160a01b03808516600483015290911660248201526044016106e4565b600460068083015460ff169081111561075157610751611f5f565b141580156107785750600560068083015460ff169081111561077557610775611f5f565b14155b156107a157600681015460405163f924664d60e01b81526106e49160ff1690600490810161218b565b836107c25760405163f1dbf8ad60e01b8152600481018590526024016106e4565b6000858152600460205260408120905b815481101561088757836001600160a01b03168282815481106107f7576107f76121a6565b60009182526020909120600160069092020101546001600160a01b031614801561084f575081818154811061082e5761082e6121a6565b906000526020600020906006020160050160149054906101000a900460ff16155b1561087f5760405163beb3e02f60e01b8152600481018890526001600160a01b03851660248201526044016106e4565b6001016107d2565b506000868152600460208181526040808420815160e0810183528b81526001600160a01b03808a168286019081529382018c81528b151560608401908152426080850190815260a085018a815260c086018b8152875460018181018a55988d5299909b2095516006909902909501978855955194870180549584166001600160a01b031990961695909517909455516002860155915160038501805491151560ff19909216919091179055915193830193909355516005909101805493511515600160a01b026001600160a81b0319909416919092161791909117905583610a5657600782018054600160a01b900460ff16906014610985836121d2565b82546101009290920a60ff8181021990931691831602179091556006848101805460ff191690911790556007840154604051600160a01b90910490911681528791507ffc2aafe600dca1be6130c14b1695378f731b29ee4b01596745de1197a94a3b8d9060200160405180910390a260078201546003600160a01b90910460ff161115610a51576007820154604051600160a01b90910460ff16815286907fb85225d453ebee59edf4df86ae69c0db64856b7180dc324dc66d49167a9cb1399060200160405180910390a25b610a66565b60068201805460ff191660051790555b6040805186815285151560208201526001600160a01b0385169188917f684b230ee3e93d253cc567ed8618d410898dfe7b4570a2f31ae2c8b886096022910160405180910390a3505050505050565b600082815260208190526040902060010154610ad0816118f5565b610ada8383611906565b505050565b610ae76118eb565b6001600160a01b0316816001600160a01b031614610b5f5760405162461bcd60e51b815260206004820152602f60248201527f416363657373436f6e74726f6c3a2063616e206f6e6c792072656e6f756e636560448201526e103937b632b9903337b91039b2b63360891b60648201526084016106e4565b610b69828261198b565b5050565b60056020528160005260406000208181548110610b8957600080fd5b90600052602060002001600091509150505481565b7fb19546dff01e856fb3f010c267a7b1c60363cf8a4664e21cc89c26224620214e610bc8816118f5565b610bd0611a0e565b50565b60046020528160005260406000208181548110610bef57600080fd5b60009182526020909120600690910201805460018201546002830154600384015460048501546005909501549396506001600160a01b039283169550909360ff918216939092811691600160a01b9091041687565b7f21702c8af46127c7fa207f89d0b0a8441bb32959a0ac7df790e9ab1a25c98926610c6e816118f5565b610c766118a3565b60008381526003602052604081208054909103610ca957604051639ce2965d60e01b8152600481018590526024016106e4565b600060068083015460ff1690811115610cc457610cc4611f5f565b14610cee57600681015460405163f924664d60e01b81526106e49160ff169060009060040161218b565b610cf66118eb565b8160060160016101000a8154816001600160a01b0302191690836001600160a01b0316021790555082610d2a576002610d2d565b60015b8160060160006101000a81548160ff02191690836006811115610d5257610d52611f5f565b0217905550610d5f6118eb565b6001600160a01b0316847f186115f4c70c8a1862f89ee3ccdf7ab6ac38070a44a7d6f64d0c32c54144682a85604051610d9c911515815260200190565b60405180910390a350505050565b60066020528160005260406000208181548110610b8957600080fd5b7fb19546dff01e856fb3f010c267a7b1c60363cf8a4664e21cc89c26224620214e610df0816118f5565b610bd0611a66565b6000918252602082815260408084206001600160a01b0393909316845291905290205460ff1690565b600081815260066020908152604091829020805483518184028101840190945280845260609392830182828015610e7757602002820191906000526020600020905b815481526020019060010190808311610e63575b50505050509050919050565b6040805161016081018252600080825260208201819052918101829052606081018290526080810182905260a0810182905260c0810182905260e08101829052610100810182905261012081018290526101408101919091526000828152600360205260408120549003610f0d57604051639ce2965d60e01b8152600481018390526024016106e4565b6000828152600360208181526040928390208351610160810185528154815260018201546001600160a01b03169281019290925260028101549382019390935290820154606082015260048201546080820152600582015460a082015260068083015491929160c084019160ff90911690811115610f8d57610f8d611f5f565b6006811115610f9e57610f9e611f5f565b8152600682015461010090046001600160a01b03908116602083015260078301549081166040830152600160a01b900460ff16606082015260089091015460809091015292915050565b7fb302d06c4efadeded1e387e0955d9d440d227b6b55549296dd39bd21dc8eddf9611012816118f5565b61101a6118a3565b6000828152600360205260408120805490910361104d57604051639ce2965d60e01b8152600481018490526024016106e4565b600160068083015460ff169081111561106857611068611f5f565b1461109257600681015460405163f924664d60e01b81526106e49160ff169060019060040161218b565b61109a6118eb565b6007820180546001600160a01b03929092166001600160a01b031990921691909117905560068101805460ff191660031790556110d56118eb565b6001600160a01b0316837f56fc2fbaa210f1c19837ae1b74f66b407800f53907306baa6ad663e98afd8af060405160405180910390a3505050565b6000600160025461112191906121f1565b905090565b60006111306118a3565b600061113a6118eb565b905084600003611160576040516390d2df9760e01b8152600481018690526024016106e4565b836111815760405163f1dbf8ad60e01b8152600481018590526024016106e4565b826111a25760405163f1dbf8ad60e01b8152600481018490526024016106e4565b60006111ac611aa3565b6001600160a01b038316600090815260076020908152604080832084845290915290205490915060ff16600381106112125760405163ace0318f60e01b81526001600160a01b03841660048201526024810183905260ff821660448201526064016106e4565b600280546000918261122383612204565b919050559050604051806101600160405280828152602001856001600160a01b031681526020018981526020018881526020018781526020014281526020016000600681111561127557611275611f5f565b8152600060208083018290526040808401839052606080850184905260809485018490528684526003808452938290208651815592860151600180850180546001600160a01b0319166001600160a01b03909316929092179091559186015160028401558501519282019290925591830151600483015560a0830151600583015560c0830151600680840180549293909260ff191691849081111561131c5761131c611f5f565b021790555060e0820151600682018054610100600160a81b0319166101006001600160a01b03938416810291909117909155830151600780840180546101208701519385166001600160a81b031990911617600160a01b60ff948516021790556101409094015160089093019290925586166000908152602092835260408082208783529093529182208054909116916113b5836121d2565b825460ff9182166101009390930a9283029190920219909116179055506001600160a01b0384166000818152600560209081526040808320805460018181018355918552838520018690558c84526006835281842080549182018155845291909220018390555189919083907f7f74cc74e40dbca0b73fe3ac25c691b6fbec703e64829e785c209f1637c55cdf90611450908c815260200190565b60405180910390a493505050505b9392505050565b600082815260208190526040902060010154611480816118f5565b610ada838361198b565b600080611495611aa3565b6001600160a01b038416600090815260076020908152604080832084845290915290205490915060ff166114ca81600361221d565b949350505050565b6001600160a01b038116600090815260056020908152604091829020805483518184028101840190945280845260609392830182828015610e775760200282019190600052602060002090815481526020019060010190808311610e635750505050509050919050565b60008181526003602081815260408084208151610160810183528154815260018201546001600160a01b03169381019390935260028101549183019190915291820154606082015260048201546080820152600582015460a082015260068083015484939160c084019160ff16908111156115b9576115b9611f5f565b60068111156115ca576115ca611f5f565b815260068201546001600160a01b03610100909104811660208301526007830154908116604083015260ff600160a01b909104811660608301526008909201546080909101526101209091015160039116119392505050565b7fb302d06c4efadeded1e387e0955d9d440d227b6b55549296dd39bd21dc8eddf961164d816118f5565b6116556118a3565b6000828152600360205260408120805490910361168857604051639ce2965d60e01b8152600481018490526024016106e4565b600601805460ff191660051790555050565b7f21702c8af46127c7fa207f89d0b0a8441bb32959a0ac7df790e9ab1a25c989266116c4816118f5565b6116cc6118a3565b60008481526004602052604090208054841061171657846116eb6118eb565b60405163beb3e02f60e01b815260048101929092526001600160a01b031660248201526044016106e4565b600081858154811061172a5761172a6121a6565b906000526020600020906006020190506117426118eb565b60059091018054941515600160a01b026001600160a81b03199095166001600160a01b0392909216919091179390931790925550505050565b7fb302d06c4efadeded1e387e0955d9d440d227b6b55549296dd39bd21dc8eddf96117a5816118f5565b6117ad6118a3565b600083815260036020526040812080549091036117e057604051639ce2965d60e01b8152600481018590526024016106e4565b600360068083015460ff16908111156117fb576117fb611f5f565b1461182557600681015460405163f924664d60e01b81526106e49160ff169060039060040161218b565b6008810183905560068101805460ff19166004179055604051839085907fdce3bce4500ab3b4eb0f9d411f9995a249f54f7d48559110aaf80947d0be33a390600090a350505050565b60006001600160e01b03198216637965db0b60e01b14806105cb57506301ffc9a760e01b6001600160e01b03198316146105cb565b60015460ff16156118e95760405162461bcd60e51b815260206004820152601060248201526f14185d5cd8589b194e881c185d5cd95960821b60448201526064016106e4565b565b6000611121611b0c565b610bd0816119016118eb565b611b81565b6119108282610df8565b610b69576000828152602081815260408083206001600160a01b03851684529091529020805460ff191660011790556119476118eb565b6001600160a01b0316816001600160a01b0316837f2f8788117e7eff1d82e926ec794901d17c78024a50270940304540a733656f0d60405160405180910390a45050565b6119958282610df8565b15610b69576000828152602081815260408083206001600160a01b03851684529091529020805460ff191690556119ca6118eb565b6001600160a01b0316816001600160a01b0316837ff6391f5c32d9c69d2a47ea670b442974b53935d1edc7fd64eb21e047a839171b60405160405180910390a45050565b611a16611bda565b6001805460ff191690557f5db9ee0a495bf2e6ff9c91a7834c1ba4fdd244a5e8aa4e537bd38aeae4b073aa611a496118eb565b6040516001600160a01b03909116815260200160405180910390a1565b611a6e6118a3565b6001805460ff1916811790557f62e78cea01bee320cd4e420270b5ea74000d11b0c9f74754ebdbfc544b05a258611a496118eb565b60004281611ab56301e133808361224c565b611ac1906107b2612260565b9050600062278d00611ad76301e1338085612273565b611ae1919061224c565b611aec906001612260565b905080611afa836064612287565b611b049190612260565b935050505090565b6000366014336001600160a01b037f000000000000000000000000000000000000000000000000000000000000000016148015611b495750808210155b15611b7957600036611b5b83856121f1565b611b6692829061229e565b611b6f916122c8565b60601c9250505090565b339250505090565b611b8b8282610df8565b610b6957611b9881611c23565b611ba3836020611c35565b604051602001611bb4929190612321565b60408051601f198184030181529082905262461bcd60e51b82526106e491600401612396565b60015460ff166118e95760405162461bcd60e51b815260206004820152601460248201527314185d5cd8589b194e881b9bdd081c185d5cd95960621b60448201526064016106e4565b60606105cb6001600160a01b03831660145b60606000611c44836002612287565b611c4f906002612260565b67ffffffffffffffff811115611c6757611c676123c9565b6040519080825280601f01601f191660200182016040528015611c91576020820181803683370190505b509050600360fc1b81600081518110611cac57611cac6121a6565b60200101906001600160f81b031916908160001a905350600f60fb1b81600181518110611cdb57611cdb6121a6565b60200101906001600160f81b031916908160001a9053506000611cff846002612287565b611d0a906001612260565b90505b6001811115611d82576f181899199a1a9b1b9c1cb0b131b232b360811b85600f1660108110611d3e57611d3e6121a6565b1a60f81b828281518110611d5457611d546121a6565b60200101906001600160f81b031916908160001a90535060049490941c93611d7b816123df565b9050611d0d565b50831561145e5760405162461bcd60e51b815260206004820181905260248201527f537472696e67733a20686578206c656e67746820696e73756666696369656e7460448201526064016106e4565b600060208284031215611de357600080fd5b81356001600160e01b03198116811461145e57600080fd5b600060208284031215611e0d57600080fd5b5035919050565b602080825282518282018190526000919060409081850190868401855b82811015611e9b57815180518552868101516001600160a01b039081168887015286820151878701526060808301511515908701526080808301519087015260a0808301519091169086015260c09081015115159085015260e09093019290850190600101611e31565b5091979650505050505050565b80356001600160a01b0381168114611ebf57600080fd5b919050565b60008060408385031215611ed757600080fd5b611ee083611ea8565b946020939093013593505050565b80358015158114611ebf57600080fd5b600080600060608486031215611f1357600080fd5b8335925060208401359150611f2a60408501611eee565b90509250925092565b60008060408385031215611f4657600080fd5b82359150611f5660208401611ea8565b90509250929050565b634e487b7160e01b600052602160045260246000fd5b60078110611f9357634e487b7160e01b600052602160045260246000fd5b9052565b8b81526001600160a01b038b81166020830152604082018b9052606082018a90526080820189905260a08201889052610160820190611fd960c0840189611f75565b80871660e08401528086166101008401525060ff8416610120830152826101408301529c9b505050505050505050505050565b6000806040838503121561201f57600080fd5b50508035926020909101359150565b6000806040838503121561204157600080fd5b82359150611f5660208401611eee565b60006020828403121561206357600080fd5b61145e82611ea8565b6020808252825182820181905260009190848201906040850190845b818110156120a457835183529284019291840191600101612088565b50909695505050505050565b815181526020808301516101608301916120d4908401826001600160a01b03169052565b5060408301516040830152606083015160608301526080830151608083015260a083015160a083015260c083015161210f60c0840182611f75565b5060e083015161212a60e08401826001600160a01b03169052565b50610100838101516001600160a01b0316908301526101208084015160ff169083015261014092830151929091019190915290565b60008060006060848603121561217457600080fd5b505081359360208301359350604090920135919050565b604081016121998285611f75565b61145e6020830184611f75565b634e487b7160e01b600052603260045260246000fd5b634e487b7160e01b600052601160045260246000fd5b600060ff821660ff81036121e8576121e86121bc565b60010192915050565b818103818111156105cb576105cb6121bc565b600060018201612216576122166121bc565b5060010190565b60ff82811682821603908111156105cb576105cb6121bc565b634e487b7160e01b600052601260045260246000fd5b60008261225b5761225b612236565b500490565b808201808211156105cb576105cb6121bc565b60008261228257612282612236565b500690565b80820281158282048414176105cb576105cb6121bc565b600080858511156122ae57600080fd5b838611156122bb57600080fd5b5050820193919092039150565b6bffffffffffffffffffffffff1981358181169160148510156122f55780818660140360031b1b83161692505b505092915050565b60005b83811015612318578181015183820152602001612300565b50506000910152565b7f416363657373436f6e74726f6c3a206163636f756e74200000000000000000008152600083516123598160178501602088016122fd565b7001034b99036b4b9b9b4b733903937b6329607d1b601791840191820152835161238a8160288401602088016122fd565b01602801949350505050565b60208152600082518060208401526123b58160408501602087016122fd565b601f01601f19169190910160400192915050565b634e487b7160e01b600052604160045260246000fd5b6000816123ee576123ee6121bc565b50600019019056fea2646970667358221220c29ee0caaf27e66e13cbdb09fe1fdd33eb171611daeb16d7db23eb6cce2930f264736f6c63430008180033b19546dff01e856fb3f010c267a7b1c60363cf8a4664e21cc89c26224620214e",
  "linkReferences": {},
  "deployedLinkReferences": {}
}