{
  "_format": "hh-sol-artifact-1",
  "contractName": "TaxModule",
  "sourceName": "contracts/TaxModule.sol",
  "abi": [
    {
      "inputs": [
        {
          "internalType": "address",
          "name": "owner",
          "type": "address"
        },
        {
          "internalType": "address",
          "name": "_taxReceipt",
          "type": "address"
        },
        {
          "internalType": "address",
          "name": "_urbanToken",
          "type": "address"
        },
        {
          "internalType": "address",
          "name": "_treasury",
          "type": "address"
        },
        {
          "internalType": "address",
          "name": "trustedForwarder",
          "type": "address"
        }
      ],
      "stateMutability": "nonpayable",
      "type": "constructor"
    },
    {
      "inputs": [
        {
          "internalType": "address",
          "name": "citizen",
          "type": "address"
        },
        {
          "internalType": "uint256",
          "name": "year",
          "type": "uint256"
        }
      ],
      "name": "AssessmentAlreadyExists",
      "type": "error"
    },
    {
      "inputs": [
        {
          "internalType": "address",
          "name": "citizen",
          "type": "address"
        },
        {
          "internalType": "uint256",
          "name": "year",
          "type": "uint256"
        }
      ],
      "name": "AssessmentAlreadyPaid",
      "type": "error"
    },
    {
      "inputs": [
        {
          "internalType": "address",
          "name": "citizen",
          "type": "address"
        },
        {
          "internalType": "uint256",
          "name": "year",
          "type": "uint256"
        }
      ],
      "name": "AssessmentNotFound",
      "type": "error"
    },
    {
      "inputs": [
        {
          "internalType": "address",
          "name": "citizen",
          "type": "address"
        },
        {
          "internalType": "uint256",
          "name": "balance",
          "type": "uint256"
        },
        {
          "internalType": "uint256",
          "name": "required",
          "type": "uint256"
        }
      ],
      "name": "InsufficientTokenBalance",
      "type": "error"
    },
    {
      "inputs": [
        {
          "internalType": "uint256",
          "name": "amount",
          "type": "uint256"
        }
      ],
      "name": "InvalidAmount",
      "type": "error"
    },
    {
      "inputs": [
        {
          "internalType": "uint256",
          "name": "timestamp",
          "type": "uint256"
        }
      ],
      "name": "InvalidMeetingTime",
      "type": "error"
    },
    {
      "inputs": [
        {
          "internalType": "uint256",
          "name": "year",
          "type": "uint256"
        }
      ],
      "name": "InvalidYear",
      "type": "error"
    },
    {
      "inputs": [
        {
          "internalType": "address",
          "name": "citizen",
          "type": "address"
        },
        {
          "internalType": "uint256",
          "name": "year",
          "type": "uint256"
        }
      ],
      "name": "MeetingAlreadyScheduled",
      "type": "error"
    },
    {
      "inputs": [
        {
          "internalType": "address",
          "name": "citizen",
          "type": "address"
        },
        {
          "internalType": "uint256",
          "name": "year",
          "type": "uint256"
        }
      ],
      "name": "ObjectionAlreadyFiled",
      "type": "error"
    },
    {
      "inputs": [],
      "name": "TreasuryNotSet",
      "type": "error"
    },
    {
      "anonymous": false,
      "inputs": [
        {
          "indexed": true,
          "internalType": "address",
          "name": "citizen",
          "type": "address"
        },
        {
          "indexed": true,
          "internalType": "uint256",
          "name": "year",
          "type": "uint256"
        },
        {
          "indexed": false,
          "internalType": "uint256",
          "name": "timestamp",
          "type": "uint256"
        },
        {
          "indexed": true,
          "internalType": "address",
          "name": "scheduler",
          "type": "address"
        }
      ],
      "name": "MeetingScheduled",
      "type": "event"
    },
    {
      "anonymous": false,
      "inputs": [
        {
          "indexed": true,
          "internalType": "address",
          "name": "citizen",
          "type": "address"
        },
        {
          "indexed": true,
          "internalType": "uint256",
          "name": "year",
          "type": "uint256"
        },
        {
          "indexed": false,
          "internalType": "bytes32",
          "name": "reasonHash",
          "type": "bytes32"
        }
      ],
      "name": "ObjectionFiled",
      "type": "event"
    },
    {
      "anonymous": false,
      "inputs": [
        {
          "indexed": false,
          "internalType": "address",
          "name": "account",
          "type": "address"
        }
      ],
      "name": "Paused",
      "type": "event"
    },
    {
      "anonymous": false,
      "inputs": [
        {
          "indexed": true,
          "internalType": "bytes32",
          "name": "role",
          "type": "bytes32"
        },
        {
          "indexed": true,
          "internalType": "bytes32",
          "name": "previousAdminRole",
          "type": "bytes32"
        },
        {
          "indexed": true,
          "internalType": "bytes32",
          "name": "newAdminRole",
          "type": "bytes32"
        }
      ],
      "name": "RoleAdminChanged",
      "type": "event"
    },
    {
      "anonymous": false,
      "inputs": [
        {
          "indexed": true,
          "internalType": "bytes32",
          "name": "role",
          "type": "bytes32"
        },
        {
          "indexed": true,
          "internalType": "address",
          "name": "account",
          "type": "address"
        },
        {
          "indexed": true,
          "internalType": "address",
          "name": "sender",
          "type": "address"
        }
      ],
      "name": "RoleGranted",
      "type": "event"
    },
    {
      "anonymous": false,
      "inputs": [
        {
          "indexed": true,
          "internalType": "bytes32",
          "name": "role",
          "type": "bytes32"
        },
        {
          "indexed": true,
          "internalType": "address",
          "name": "account",
          "type": "address"
        },
        {
          "indexed": true,
          "internalType": "address",
          "name": "sender",
          "type": "address"
        }
      ],
      "name": "RoleRevoked",
      "type": "event"
    },
    {
      "anonymous": false,
      "inputs": [
        {
          "indexed": true,
          "internalType": "address",
          "name": "citizen",
          "type": "address"
        },
        {
          "indexed": true,
          "internalType": "uint256",
          "name": "year",
          "type": "uint256"
        },
        {
          "indexed": false,
          "internalType": "uint256",
          "name": "amount",
          "type": "uint256"
        },
        {
          "indexed": false,
          "internalType": "bytes32",
          "name": "docsHash",
          "type": "bytes32"
        },
        {
          "indexed": true,
          "internalType": "address",
          "name": "assessor",
          "type": "address"
        }
      ],
      "name": "TaxAssessed",
      "type": "event"
    },
    {
      "anonymous": false,
      "inputs": [
        {
          "indexed": true,
          "internalType": "address",
          "name": "citizen",
          "type": "address"
        },
        {
          "indexed": true,
          "internalType": "uint256",
          "name": "year",
          "type": "uint256"
        },
        {
          "indexed": false,
          "internalType": "uint256",
          "name": "amount",
          "type": "uint256"
        },
        {
          "indexed": false,
          "internalType": "uint256",
          "name": "receiptTokenId",
          "type": "uint256"
        }
      ],
      "name": "TaxPaid",
      "type": "event"
    },
    {
      "anonymous": false,
      "inputs": [
        {
          "indexed": false,
          "internalType": "address",
          "name": "account",
          "type": "address"
        }
      ],
      "name": "Unpaused",
      "type": "event"
    },
    {
      "inputs": [],
      "name": "DEFAULT_ADMIN_ROLE",
      "outputs": [
        {
          "internalType": "bytes32",
          "name": "",
          "type": "bytes32"
        }
      ],
      "stateMutability": "view",
      "type": "function"
    },
    {
      "inputs": [
        {
          "internalType": "address",
          "name": "citizen",
          "type": "address"
        },
        {
          "internalType": "uint256",
          "name": "year",
          "type": "uint256"
        },
        {
          "internalType": "uint256",
          "name": "amount",
          "type": "uint256"
        },
        {
          "internalType": "bytes32",
          "name": "docsHash",
          "type": "bytes32"
        }
      ],
      "name": "assess",
      "outputs": [],
      "stateMutability": "nonpayable",
      "type": "function"
    },
    {
      "inputs": [
        {
          "internalType": "address",
          "name": "",
          "type": "address"
        },
        {
          "internalType": "uint256",
          "name": "",
          "type": "uint256"
        }
      ],
      "name": "assessments",
      "outputs": [
        {
          "internalType": "uint256",
          "name": "amount",
          "type": "uint256"
        },
        {
          "internalType": "bytes32",
          "name": "docsHash",
          "type": "bytes32"
        },
        {
          "internalType": "address",
          "name": "assessedBy",
          "type": "address"
        },
        {
          "internalType": "bool",
          "name": "paid",
          "type": "bool"
        },
        {
          "internalType": "uint256",
          "name": "paidAt",
          "type": "uint256"
        },
        {
          "internalType": "bytes32",
          "name": "objectionHash",
          "type": "bytes32"
        },
        {
          "internalType": "bool",
          "name": "objectionFiled",
          "type": "bool"
        },
        {
          "internalType": "uint256",
          "name": "meetingTimestamp",
          "type": "uint256"
        }
      ],
      "stateMutability": "view",
      "type": "function"
    },
    {
      "inputs": [
        {
          "internalType": "address",
          "name": "",
          "type": "address"
        },
        {
          "internalType": "uint256",
          "name": "",
          "type": "uint256"
        }
      ],
      "name": "citizenTaxYears",
      "outputs": [
        {
          "internalType": "uint256",
          "name": "",
          "type": "uint256"
        }
      ],
      "stateMutability": "view",
      "type": "function"
    },
    {
      "inputs": [
        {
          "internalType": "address",
          "name": "citizen",
          "type": "address"
        },
        {
          "internalType": "uint256",
          "name": "year",
          "type": "uint256"
        }
      ],
      "name": "getAssessment",
      "outputs": [
        {
          "components": [
            {
              "internalType": "uint256",
              "name": "amount",
              "type": "uint256"
            },
            {
              "internalType": "bytes32",
              "name": "docsHash",
              "type": "bytes32"
            },
            {
              "internalType": "address",
              "name": "assessedBy",
              "type": "address"
            },
            {
              "internalType": "bool",
              "name": "paid",
              "type": "bool"
            },
            {
              "internalType": "uint256",
              "name": "paidAt",
              "type": "uint256"
            },
            {
              "internalType": "bytes32",
              "name": "objectionHash",
              "type": "bytes32"
            },
            {
              "internalType": "bool",
              "name": "objectionFiled",
              "type": "bool"
            },
            {
              "internalType": "uint256",
              "name": "meetingTimestamp",
              "type": "uint256"
            }
          ],
          "internalType": "struct TaxModule.Assessment",
          "name": "",
          "type": "tuple"
        }
      ],
      "stateMutability": "view",
      "type": "function"
    },
    {
      "inputs": [
        {
          "internalType": "address",
          "name": "citizen",
          "type": "address"
        }
      ],
      "name": "getCitizenTaxYears",
      "outputs": [
        {
          "internalType": "uint256[]",
          "name": "",
          "type": "uint256[]"
        }
      ],
      "stateMutability": "view",
      "type": "function"
    },
    {
      "inputs": [
        {
          "internalType": "address",
          "name": "citizen",
          "type": "address"
        }
      ],
      "name": "getOutstandingTax",
      "outputs": [
        {
          "internalType": "uint256",
          "name": "",
          "type": "uint256"
        }
      ],
      "stateMutability": "view",
      "type": "function"
    },
    {
      "inputs": [
        {
          "internalType": "bytes32",
          "name": "role",
          "type": "bytes32"
        }
      ],
      "name": "getRoleAdmin",
      "outputs": [
        {
          "internalType": "bytes32",
          "name": "",
          "type": "bytes32"
        }
      ],
      "stateMutability": "view",
      "type": "function"
    },
    {
      "inputs": [
        {
          "internalType": "uint256",
          "name": "year",
          "type": "uint256"
        }
      ],
      "name": "getTotalCollected",
      "outputs": [
        {
          "internalType": "uint256",
          "name": "",
          "type": "uint256"
        }
      ],
      "stateMutability": "view",
      "type": "function"
    },
    {
      "inputs": [
        {
          "internalType": "uint256",
          "name": "year",
          "type": "uint256"
        }
      ],
      "name": "getYearCitizens",
      "outputs": [
        {
          "internalType": "address[]",
          "name": "",
          "type": "address[]"
        }
      ],
      "stateMutability": "view",
      "type": "function"
    },
    {
      "inputs": [
        {
          "internalType": "bytes32",
          "name": "role",
          "type": "bytes32"
        },
        {
          "internalType": "address",
          "name": "account",
          "type": "address"
        }
      ],
      "name": "grantRole",
      "outputs": [],
      "stateMutability": "nonpayable",
      "type": "function"
    },
    {
      "inputs": [
        {
          "internalType": "address",
          "name": "citizen",
          "type": "address"
        },
        {
          "internalType": "uint256",
          "name": "year",
          "type": "uint256"
        }
      ],
      "name": "hasObjection",
      "outputs": [
        {
          "internalType": "bool",
          "name": "",
          "type": "bool"
        }
      ],
      "stateMutability": "view",
      "type": "function"
    },
    {
      "inputs": [
        {
          "internalType": "address",
          "name": "citizen",
          "type": "address"
        },
        {
          "internalType": "uint256",
          "name": "year",
          "type": "uint256"
        }
      ],
      "name": "hasPaidTax",
      "outputs": [
        {
          "internalType": "bool",
          "name": "",
          "type": "bool"
        }
      ],
      "stateMutability": "view",
      "type": "function"
    },
    {
      "inputs": [
        {
          "internalType": "bytes32",
          "name": "role",
          "type": "bytes32"
        },
        {
          "internalType": "address",
          "name": "account",
          "type": "address"
        }
      ],
      "name": "hasRole",
      "outputs": [
        {
          "internalType": "bool",
          "name": "",
          "type": "bool"
        }
      ],
      "stateMutability": "view",
      "type": "function"
    },
    {
      "inputs": [
        {
          "internalType": "address",
          "name": "forwarder",
          "type": "address"
        }
      ],
      "name": "isTrustedForwarder",
      "outputs": [
        {
          "internalType": "bool",
          "name": "",
          "type": "bool"
        }
      ],
      "stateMutability": "view",
      "type": "function"
    },
    {
      "inputs": [
        {
          "internalType": "uint256",
          "name": "year",
          "type": "uint256"
        },
        {
          "internalType": "bytes32",
          "name": "reasonHash",
          "type": "bytes32"
        }
      ],
      "name": "objectAssessment",
      "outputs": [],
      "stateMutability": "nonpayable",
      "type": "function"
    },
    {
      "inputs": [],
      "name": "pause",
      "outputs": [],
      "stateMutability": "nonpayable",
      "type": "function"
    },
    {
      "inputs": [],
      "name": "paused",
      "outputs": [
        {
          "internalType": "bool",
          "name": "",
          "type": "bool"
        }
      ],
      "stateMutability": "view",
      "type": "function"
    },
    {
      "inputs": [
        {
          "internalType": "uint256",
          "name": "year",
          "type": "uint256"
        }
      ],
      "name": "payTax",
      "outputs": [],
      "stateMutability": "nonpayable",
      "type": "function"
    },
    {
      "inputs": [
        {
          "internalType": "bytes32",
          "name": "role",
          "type": "bytes32"
        },
        {
          "internalType": "address",
          "name": "account",
          "type": "address"
        }
      ],
      "name": "renounceRole",
      "outputs": [],
      "stateMutability": "nonpayable",
      "type": "function"
    },
    {
      "inputs": [
        {
          "internalType": "bytes32",
          "name": "role",
          "type": "bytes32"
        },
        {
          "internalType": "address",
          "name": "account",
          "type": "address"
        }
      ],
      "name": "revokeRole",
      "outputs": [],
      "stateMutability": "nonpayable",
      "type": "function"
    },
    {
      "inputs": [
        {
          "internalType": "address",
          "name": "citizen",
          "type": "address"
        },
        {
          "internalType": "uint256",
          "name": "year",
          "type": "uint256"
        },
        {
          "internalType": "uint256",
          "name": "timestamp",
          "type": "uint256"
        }
      ],
      "name": "scheduleMeeting",
      "outputs": [],
      "stateMutability": "nonpayable",
      "type": "function"
    },
    {
      "inputs": [
        {
          "internalType": "address",
          "name": "_treasury",
          "type": "address"
        }
      ],
      "name": "setTreasury",
      "outputs": [],
      "stateMutability": "nonpayable",
      "type": "function"
    },
    {
      "inputs": [
        {
          "internalType": "bytes4",
          "name": "interfaceId",
          "type": "bytes4"
        }
      ],
      "name": "supportsInterface",
      "outputs": [
        {
          "internalType": "bool",
          "name": "",
          "type": "bool"
        }
      ],
      "stateMutability": "view",
      "type": "function"
    },
    {
      "inputs": [],
      "name": "taxReceipt",
      "outputs": [
        {
          "internalType": "contract TaxReceipt",
          "name": "",
          "type": "address"
        }
      ],
      "stateMutability": "view",
      "type": "function"
    },
    {
      "inputs": [],
      "name": "treasury",
      "outputs": [
        {
          "internalType": "address",
          "name": "",
          "type": "address"
        }
      ],
      "stateMutability": "view",
      "type": "function"
    },
    {
      "inputs": [],
      "name": "unpause",
      "outputs": [],
      "stateMutability": "nonpayable",
      "type": "function"
    },
    {
      "inputs": [],
      "name": "urbanToken",
      "outputs": [
        {
          "internalType": "contract UrbanToken",
          "name": "",
          "type": "address"
        }
      ],
      "stateMutability": "view",
      "type": "function"
    },
    {
      "inputs": [
        {
          "internalType": "uint256",
          "name": "",
          "type": "uint256"
        },
        {
          "internalType": "uint256",
          "name": "",
          "type": "uint256"
        }
      ],
      "name": "yearCitizens",
      "outputs": [
        {
          "internalType": "address",
          "name": "",
          "type": "address"
        }
      ],
      "stateMutability": "view",
      "type": "function"
    }
  ],
  "bytecode": "0x60e06040523480156200001157600080fd5b506040516200227538038062002275833981016040819052620000349162000247565b6001805460ff191681556002556001600160a01b038116608052620000696000805160206200225583398151915286620000b5565b62000084600080516020620022558339815191528062000140565b506001600160a01b0392831660a05290821660c052600680546001600160a01b031916919092161790555062000336565b620000c182826200018b565b6200013c576000828152602081815260408083206001600160a01b03851684529091529020805460ff19166001179055620000fb620001b6565b6001600160a01b0316816001600160a01b0316837f2f8788117e7eff1d82e926ec794901d17c78024a50270940304540a733656f0d60405160405180910390a45b5050565b600082815260208190526040808220600101805490849055905190918391839186917fbd79b86ffe0ab8e8776151514217cd7cacd52c909f66475c3af44e129f0b00ff9190a4505050565b6000828152602081815260408083206001600160a01b038516845290915290205460ff165b92915050565b6000620001c2620001c7565b905090565b6000368160146080519091506001600160a01b031633148015620001eb5750808210155b156200022257600036620002008385620002b7565b6200020d928290620002d9565b620002189162000305565b60601c9250505090565b339250505090565b80516001600160a01b03811681146200024257600080fd5b919050565b600080600080600060a086880312156200026057600080fd5b6200026b866200022a565b94506200027b602087016200022a565b93506200028b604087016200022a565b92506200029b606087016200022a565b9150620002ab608087016200022a565b90509295509295909350565b81810381811115620001b057634e487b7160e01b600052601160045260246000fd5b60008085851115620002ea57600080fd5b83861115620002f857600080fd5b5050820193919092039150565b6001600160601b031981358181169160148510156200032e5780818660140360031b1b83161692505b505092915050565b60805160a05160c051611ecc620003896000396000818161058401528181610d3e0152610e3b015260008181610215015281816116f3015261177501526000818161031a01526117fb0152611ecc6000f3fe608060405234801561001057600080fd5b50600436106101ce5760003560e01c80638456cb5911610104578063b55e9fa9116100a2578063f0f4426011610071578063f0f4426014610663578063f56de77614610676578063f90948c114610689578063f9d46df11461069c57600080fd5b8063b55e9fa914610617578063cfc75e721461062a578063d43c7c471461063d578063d547741f1461065057600080fd5b806391d14854116100de57806391d14854146105a6578063a05aaf50146105b9578063a217fddf146105cc578063afe3a6c2146105d457600080fd5b80638456cb59146104c4578063883f7208146104cc5780638fd6d33d1461057f57600080fd5b80633f4ba83a116101715780635b5d52c01161014b5780635b5d52c01461034a5780635c975abb1461049357806361d027b31461049e5780637c6ee7b5146104b157600080fd5b80633f4ba83a146102e257806345884df9146102ea578063572b6c051461030a57600080fd5b8063248a9ca3116101ad578063248a9ca31461024f57806327ffd1f8146102805780632f2ff15d146102bc57806336568abe146102cf57600080fd5b806293b391146101d357806301ffc9a7146101e857806303cdc7ae14610210575b600080fd5b6101e66101e1366004611ab7565b6106bc565b005b6101fb6101f6366004611ad9565b610807565b60405190151581526020015b60405180910390f35b6102377f000000000000000000000000000000000000000000000000000000000000000081565b6040516001600160a01b039091168152602001610207565b61027261025d366004611b03565b60009081526020819052604090206001015490565b604051908152602001610207565b6101fb61028e366004611b38565b6001600160a01b03919091166000908152600360209081526040808320938352929052206005015460ff1690565b6101e66102ca366004611b62565b610818565b6101e66102dd366004611b62565b610842565b6101e66108d0565b6102fd6102f8366004611b03565b610905565b6040516102079190611b8e565b6101fb610318366004611bdb565b7f00000000000000000000000000000000000000000000000000000000000000006001600160a01b0390811691161490565b61042a610358366004611b38565b6040805161010081018252600080825260208201819052918101829052606081018290526080810182905260a0810182905260c0810182905260e0810191909152506001600160a01b0391821660009081526003602081815260408084209484529381529183902083516101008101855281548152600182015493810193909352600281015494851693830193909352600160a01b90930460ff90811615156060830152928201546080820152600482015460a08201526005820154909216151560c08301526006015460e082015290565b604051610207919081518152602080830151908201526040808301516001600160a01b0316908201526060808301511515908201526080808301519082015260a0808301519082015260c08083015115159082015260e091820151918101919091526101000190565b60015460ff166101fb565b600654610237906001600160a01b031681565b6101e66104bf366004611bf6565b610971565b6101e6610be5565b6105366104da366004611b38565b600360208181526000938452604080852090915291835291208054600182015460028301549383015460048401546005850154600690950154939592946001600160a01b03841694600160a01b90940460ff9081169491169088565b6040805198895260208901979097526001600160a01b03909516958701959095529115156060860152608085015260a084015290151560c083015260e082015261010001610207565b6102377f000000000000000000000000000000000000000000000000000000000000000081565b6101fb6105b4366004611b62565b610c17565b6101e66105c7366004611b03565b610c40565b610272600081565b6101fb6105e2366004611b38565b6001600160a01b039190911660009081526003602090815260408083209383529290522060020154600160a01b900460ff1690565b6101e6610625366004611c2f565b610f1a565b610237610638366004611ab7565b61104f565b61027261064b366004611bdb565b611087565b6101e661065e366004611b62565b6111da565b6101e6610671366004611bdb565b6111ff565b610272610684366004611b38565b61124c565b610272610697366004611b03565b61127d565b6106af6106aa366004611bdb565b6113c0565b6040516102079190611c62565b6106c461142b565b60006106ce611473565b6001600160a01b03811660009081526003602090815260408083208784529091528120805492935091900361072d5760405163595423d160e01b81526001600160a01b0383166004820152602481018590526044015b60405180910390fd5b600581015460ff16156107655760405163828dc5f360e01b81526001600160a01b038316600482015260248101859052604401610724565b6002810154600160a01b900460ff16156107a4576040516341f3a7eb60e11b81526001600160a01b038316600482015260248101859052604401610724565b60058101805460ff191660011790556004810183905560405184906001600160a01b038416907f08b83bfce2b73935a0dbeceb309668c5f638b2d36fa0a27329c76a8a41f8cd28906107f99087815260200190565b60405180910390a350505050565b600061081282611482565b92915050565b600082815260208190526040902060010154610833816114b7565b61083d83836114c8565b505050565b61084a611473565b6001600160a01b0316816001600160a01b0316146108c25760405162461bcd60e51b815260206004820152602f60248201527f416363657373436f6e74726f6c3a2063616e206f6e6c792072656e6f756e636560448201526e103937b632b9903337b91039b2b63360891b6064820152608401610724565b6108cc828261154d565b5050565b7fb19546dff01e856fb3f010c267a7b1c60363cf8a4664e21cc89c26224620214e6108fa816114b7565b6109026115d0565b50565b60008181526005602090815260409182902080548351818402810184019094528084526060939283018282801561096557602002820191906000526020600020905b81546001600160a01b03168152600190910190602001808311610947575b50505050509050919050565b7f7cb8da4815c5c7bfec597d7479bf1f02def0b6d0f50cd2ad5eb80c69ac5c1a1b61099b816114b7565b6109a361142b565b6107e48410806109b4575061083484115b156109d557604051633d9fbbf160e11b815260048101859052602401610724565b826000036109f957604051633728b83d60e01b815260048101849052602401610724565b6001600160a01b038516600090815260036020908152604080832087845290915290205415610a4d5760405163df82f43d60e01b81526001600160a01b038616600482015260248101859052604401610724565b604051806101000160405280848152602001838152602001610a6d611473565b6001600160a01b0390811682526000602080840182905260408085018390526060808601849052608080870185905260a09687018590528c861680865260038086528487208e885286528487208a5181558a8701516001828101919091558b870151600283018054978e01511515600160a01b026001600160a81b031990981691909b16179590951790985591890151918701919091559587015160048087019190915560c08801516005808801805492151560ff199093169290921790915560e09098015160069096019590955585845293825280832080548086018255908452828420018a90558983529481529381208054928301815581529290922090910180546001600160a01b0319169091179055610b88611473565b6001600160a01b031684866001600160a01b03167fb42d1db741e1df1d12b75982f05da4be96d1b33e1d5891d48be7d5605f15a6d88686604051610bd6929190918252602082015260400190565b60405180910390a45050505050565b7fb19546dff01e856fb3f010c267a7b1c60363cf8a4664e21cc89c26224620214e610c0f816114b7565b610902611628565b6000918252602082815260408084206001600160a01b0393909316845291905290205460ff1690565b610c48611665565b610c5061142b565b6000610c5a611473565b6001600160a01b038116600090815260036020908152604080832086845290915281208054929350919003610cb45760405163595423d160e01b81526001600160a01b038316600482015260248101849052604401610724565b6002810154600160a01b900460ff1615610cf3576040516341f3a7eb60e11b81526001600160a01b038316600482015260248101849052604401610724565b6006546001600160a01b0316610d1c5760405163b2c4cce960e01b815260040160405180910390fd5b6040516370a0823160e01b81526001600160a01b0383811660048301526000917f0000000000000000000000000000000000000000000000000000000000000000909116906370a0823190602401602060405180830381865afa158015610d87573d6000803e3d6000fd5b505050506040513d601f19601f82011682018060405250810190610dab9190611c9a565b8254909150811015610dec57815460405163ebd6ced960e01b81526001600160a01b0385166004820152602481018390526044810191909152606401610724565b60028201805460ff60a01b1916600160a01b17905542600383015560065482546040516323b872dd60e01b81526001600160a01b038681166004830152928316602482015260448101919091527f0000000000000000000000000000000000000000000000000000000000000000909116906323b872dd906064016020604051808303816000875af1158015610e86573d6000803e3d6000fd5b505050506040513d601f19601f82011682018060405250810190610eaa9190611cb3565b506000610ec18486856000015486600101546116bc565b8354604080519182526020820183905291925086916001600160a01b038716917f5ba709d59fd54cecfc6559dfd1bb413f805764f9c3548c82aef7465d3df9d128910160405180910390a3505050506109026001600255565b7f7cb8da4815c5c7bfec597d7479bf1f02def0b6d0f50cd2ad5eb80c69ac5c1a1b610f44816114b7565b610f4c61142b565b6001600160a01b038416600090815260036020908152604080832086845290915281208054909103610fa35760405163595423d160e01b81526001600160a01b038616600482015260248101859052604401610724565b600681015415610fd857604051637368824960e11b81526001600160a01b038616600482015260248101859052604401610724565b428311610ffb57604051636145391960e11b815260048101849052602401610724565b6006810183905561100a611473565b6001600160a01b031684866001600160a01b03167ff3d4e3013c1ff3f1cff933e176bc3822916d08bc4c98e075486b300ac462fd1f86604051610bd691815260200190565b6005602052816000526040600020818154811061106b57600080fd5b6000918252602090912001546001600160a01b03169150829050565b6001600160a01b0381166000908152600460209081526040808320805482518185028101850190935280835284938301828280156110e457602002820191906000526020600020905b8154815260200190600101908083116110d0575b505050505090506000805b82518110156111d2576001600160a01b03851660009081526003602052604081208451829086908590811061112657611126611cd5565b60209081029190910181015182528181019290925260409081016000208151610100810183528154815260018201549381019390935260028101546001600160a01b0381169284019290925260ff600160a01b909204821615156060840181905260038201546080850152600482015460a08501526005820154909216151560c08401526006015460e08301529091506111c95780516111c69084611d01565b92505b506001016110ef565b509392505050565b6000828152602081905260409020600101546111f5816114b7565b61083d838361154d565b7fb19546dff01e856fb3f010c267a7b1c60363cf8a4664e21cc89c26224620214e611229816114b7565b50600680546001600160a01b0319166001600160a01b0392909216919091179055565b6004602052816000526040600020818154811061126857600080fd5b90600052602060002001600091509150505481565b6000818152600560209081526040808320805482518185028101850190935280835284938301828280156112da57602002820191906000526020600020905b81546001600160a01b031681526001909101906020018083116112bc575b505050505090506000805b82518110156111d25760006003600085848151811061130657611306611cd5565b6020908102919091018101516001600160a01b03908116835282820193909352604091820160009081208a825282528290208251610100810184528154815260018201549281019290925260028101549384169282019290925260ff600160a01b9093048316158015606083015260038301546080830152600483015460a08301526005830154909316151560c082015260069091015460e082015291506113b75780516113b49084611d01565b92505b506001016112e5565b6001600160a01b03811660009081526004602090815260409182902080548351818402810184019094528084526060939283018282801561096557602002820191906000526020600020905b81548152602001906001019080831161140c5750505050509050919050565b60015460ff16156114715760405162461bcd60e51b815260206004820152601060248201526f14185d5cd8589b194e881c185d5cd95960821b6044820152606401610724565b565b600061147d6117eb565b905090565b60006001600160e01b03198216637965db0b60e01b148061081257506301ffc9a760e01b6001600160e01b0319831614610812565b610902816114c3611473565b611860565b6114d28282610c17565b6108cc576000828152602081815260408083206001600160a01b03851684529091529020805460ff19166001179055611509611473565b6001600160a01b0316816001600160a01b0316837f2f8788117e7eff1d82e926ec794901d17c78024a50270940304540a733656f0d60405160405180910390a45050565b6115578282610c17565b156108cc576000828152602081815260408083206001600160a01b03851684529091529020805460ff1916905561158c611473565b6001600160a01b0316816001600160a01b0316837ff6391f5c32d9c69d2a47ea670b442974b53935d1edc7fd64eb21e047a839171b60405160405180910390a45050565b6115d86118b9565b6001805460ff191690557f5db9ee0a495bf2e6ff9c91a7834c1ba4fdd244a5e8aa4e537bd38aeae4b073aa61160b611473565b6040516001600160a01b03909116815260200160405180910390a1565b61163061142b565b6001805460ff1916811790557f62e78cea01bee320cd4e420270b5ea74000d11b0c9f74754ebdbfc544b05a25861160b611473565b60028054036116b65760405162461bcd60e51b815260206004820152601f60248201527f5265656e7472616e637947756172643a207265656e7472616e742063616c6c006044820152606401610724565b60028055565b604051632b5e797160e11b81526001600160a01b0385811660048301526024820185905260448201849052606482018390526000917f0000000000000000000000000000000000000000000000000000000000000000909116906356bcf2e290608401600060405180830381600087803b15801561173957600080fd5b505af115801561174d573d6000803e3d6000fd5b5050604051630a19f2a160e11b81526001600160a01b038881166004830152602482018890527f0000000000000000000000000000000000000000000000000000000000000000169250631433e5429150604401602060405180830381865afa1580156117be573d6000803e3d6000fd5b505050506040513d601f19601f820116820180604052508101906117e29190611c9a565b95945050505050565b6000366014336001600160a01b037f0000000000000000000000000000000000000000000000000000000000000000161480156118285750808210155b156118585760003661183a8385611d14565b611845928290611d27565b61184e91611d51565b60601c9250505090565b339250505090565b61186a8282610c17565b6108cc5761187781611902565b611882836020611914565b604051602001611893929190611daa565b60408051601f198184030181529082905262461bcd60e51b825261072491600401611e1f565b60015460ff166114715760405162461bcd60e51b815260206004820152601460248201527314185d5cd8589b194e881b9bdd081c185d5cd95960621b6044820152606401610724565b60606108126001600160a01b03831660145b60606000611923836002611e52565b61192e906002611d01565b67ffffffffffffffff81111561194657611946611e69565b6040519080825280601f01601f191660200182016040528015611970576020820181803683370190505b509050600360fc1b8160008151811061198b5761198b611cd5565b60200101906001600160f81b031916908160001a905350600f60fb1b816001815181106119ba576119ba611cd5565b60200101906001600160f81b031916908160001a90535060006119de846002611e52565b6119e9906001611d01565b90505b6001811115611a61576f181899199a1a9b1b9c1cb0b131b232b360811b85600f1660108110611a1d57611a1d611cd5565b1a60f81b828281518110611a3357611a33611cd5565b60200101906001600160f81b031916908160001a90535060049490941c93611a5a81611e7f565b90506119ec565b508315611ab05760405162461bcd60e51b815260206004820181905260248201527f537472696e67733a20686578206c656e67746820696e73756666696369656e746044820152606401610724565b9392505050565b60008060408385031215611aca57600080fd5b50508035926020909101359150565b600060208284031215611aeb57600080fd5b81356001600160e01b031981168114611ab057600080fd5b600060208284031215611b1557600080fd5b5035919050565b80356001600160a01b0381168114611b3357600080fd5b919050565b60008060408385031215611b4b57600080fd5b611b5483611b1c565b946020939093013593505050565b60008060408385031215611b7557600080fd5b82359150611b8560208401611b1c565b90509250929050565b6020808252825182820181905260009190848201906040850190845b81811015611bcf5783516001600160a01b031683529284019291840191600101611baa565b50909695505050505050565b600060208284031215611bed57600080fd5b611ab082611b1c565b60008060008060808587031215611c0c57600080fd5b611c1585611b1c565b966020860135965060408601359560600135945092505050565b600080600060608486031215611c4457600080fd5b611c4d84611b1c565b95602085013595506040909401359392505050565b6020808252825182820181905260009190848201906040850190845b81811015611bcf57835183529284019291840191600101611c7e565b600060208284031215611cac57600080fd5b5051919050565b600060208284031215611cc557600080fd5b81518015158114611ab057600080fd5b634e487b7160e01b600052603260045260246000fd5b634e487b7160e01b600052601160045260246000fd5b8082018082111561081257610812611ceb565b8181038181111561081257610812611ceb565b60008085851115611d3757600080fd5b83861115611d4457600080fd5b5050820193919092039150565b6bffffffffffffffffffffffff198135818116916014851015611d7e5780818660140360031b1b83161692505b505092915050565b60005b83811015611da1578181015183820152602001611d89565b50506000910152565b7f416363657373436f6e74726f6c3a206163636f756e7420000000000000000000815260008351611de2816017850160208801611d86565b7001034b99036b4b9b9b4b733903937b6329607d1b6017918401918201528351611e13816028840160208801611d86565b01602801949350505050565b6020815260008251806020840152611e3e816040850160208701611d86565b601f01601f19169190910160400192915050565b808202811582820484141761081257610812611ceb565b634e487b7160e01b600052604160045260246000fd5b600081611e8e57611e8e611ceb565b50600019019056fea2646970667358221220049e426aeccaac9c609b787cc8e85137e02828ce7d3c826d3e8b1fece85dd8f864736f6c63430008180033b19546dff01e856fb3f010c267a7b1c60363cf8a4664e21cc89c26224620214e",
  "linkReferences": {},
  "deployedLinkReferences": {}
}