{
  "_format": "hh-sol-artifact-1",
  "contractName": "MetaForwarder",
  "sourceName": "contracts/MetaForwarder.sol",
  "abi": [
    {
      "inputs": [],
      "stateMutability": "nonpayable",
      "type": "constructor"
    },
    {
      "inputs": [
        {
          "internalType": "bytes",
          "name": "returnData",
          "type": "bytes"
        }
      ],
      "name": "ExecutionFailed",
      "type": "error"
    },
    {
      "inputs": [
        {
          "internalType": "uint256",
          "name": "expected",
          "type": "uint256"
        },
        {
          "internalType": "uint256",
          "name": "provided",
          "type": "uint256"
        }
      ],
      "name": "InvalidNonce",
      "type": "error"
    },
    {
      "inputs": [],
      "name": "InvalidShortString",
      "type": "error"
    },
    {
      "inputs": [],
      "name": "InvalidSignature",
      "type": "error"
    },
    {
      "inputs": [
        {
          "internalType": "string",
          "name": "str",
          "type": "string"
        }
      ],
      "name": "StringTooLong",
      "type": "error"
    },
    {
      "anonymous": false,
      "inputs": [],
      "name": "EIP712DomainChanged",
      "type": "event"
    },
    {
      "anonymous": false,
      "inputs": [
        {
          "indexed": true,
          "internalType": "address",
          "name": "from",
          "type": "address"
        },
        {
          "indexed": true,
          "internalType": "address",
          "name": "to",
          "type": "address"
        },
        {
          "indexed": true,
          "internalType": "uint256",
          "name": "nonce",
          "type": "uint256"
        },
        {
          "indexed": false,
          "internalType": "bool",
          "name": "success",
          "type": "bool"
        },
        {
          "indexed": false,
          "internalType": "bytes",
          "name": "returnData",
          "type": "bytes"
        }
      ],
      "name": "MetaTransactionExecuted",
      "type": "event"
    },
    {
      "inputs": [],
      "name": "domainSeparator",
      "outputs": [
        {
          "internalType": "bytes32",
          "name": "",
          "type": "bytes32"
        }
      ],
      "stateMutability": "view",
      "type": "function"
    },
    {
      "inputs": [],
      "name": "eip712Domain",
      "outputs": [
        {
          "internalType": "bytes1",
          "name": "fields",
          "type": "bytes1"
        },
        {
          "internalType": "string",
          "name": "name",
          "type": "string"
        },
        {
          "internalType": "string",
          "name": "version",
          "type": "string"
        },
        {
          "internalType": "uint256",
          "name": "chainId",
          "type": "uint256"
        },
        {
          "internalType": "address",
          "name": "verifyingContract",
          "type": "address"
        },
        {
          "internalType": "bytes32",
          "name": "salt",
          "type": "bytes32"
        },
        {
          "internalType": "uint256[]",
          "name": "extensions",
          "type": "uint256[]"
        }
      ],
      "stateMutability": "view",
      "type": "function"
    },
    {
      "inputs": [
        {
          "components": [
            {
              "internalType": "address",
              "name": "from",
              "type": "address"
            },
            {
              "internalType": "address",
              "name": "to",
              "type": "address"
            },
            {
              "internalType": "uint256",
              "name": "value",
              "type": "uint256"
            },
            {
              "internalType": "uint256",
              "name": "gas",
              "type": "uint256"
            },
            {
              "internalType": "uint256",
              "name": "nonce",
              "type": "uint256"
            },
            {
              "internalType": "bytes",
              "name": "data",
              "type": "bytes"
            }
          ],
          "internalType": "struct MetaForwarder.ForwardRequest",
          "name": "req",
          "type": "tuple"
        },
        {
          "internalType": "bytes",
          "name": "signature",
          "type": "bytes"
        }
      ],
      "name": "execute",
      "outputs": [
        {
          "internalType": "bool",
          "name": "success",
          "type": "bool"
        },
        {
          "internalType": "bytes",
          "name": "returnData",
          "type": "bytes"
        }
      ],
      "stateMutability": "payable",
      "type": "function"
    },
    {
      "inputs": [
        {
          "components": [
            {
              "internalType": "address",
              "name": "from",
              "type": "address"
            },
            {
              "internalType": "address",
              "name": "to",
              "type": "address"
            },
            {
              "internalType": "uint256",
              "name": "value",
              "type": "uint256"
            },
            {
              "internalType": "uint256",
              "name": "gas",
              "type": "uint256"
            },
            {
              "internalType": "uint256",
              "name": "nonce",
              "type": "uint256"
            },
            {
              "internalType": "bytes",
              "name": "data",
              "type": "bytes"
            }
          ],
          "internalType": "struct MetaForwarder.ForwardRequest[]",
          "name": "reqs",
          "type": "tuple[]"
        },
        {
          "internalType": "bytes[]",
          "name": "signatures",
          "type": "bytes[]"
        }
      ],
      "name": "executeBatch",
      "outputs": [
        {
          "internalType": "bool[]",
          "name": "successes",
          "type": "bool[]"
        },
        {
          "internalType": "bytes[]",
          "name": "returnDatas",
          "type": "bytes[]"
        }
      ],
      "stateMutability": "payable",
      "type": "function"
    },
    {
      "inputs": [
        {
          "internalType": "address",
          "name": "from",
          "type": "address"
        }
      ],
      "name": "getNonce",
      "outputs": [
        {
          "internalType": "uint256",
          "name": "",
          "type": "uint256"
        }
      ],
      "stateMutability": "view",
      "type": "function"
    },
    {
      "inputs": [
        {
          "internalType": "address",
          "name": "forwarder",
          "type": "address"
        }
      ],
      "name": "isTrustedForwarder",
      "outputs": [
        {
          "internalType": "bool",
          "name": "",
          "type": "bool"
        }
      ],
      "stateMutability": "view",
      "type": "function"
    },
    {
      "inputs": [
        {
          "components": [
            {
              "internalType": "address",
              "name": "from",
              "type": "address"
            },
            {
              "internalType": "address",
              "name": "to",
              "type": "address"
            },
            {
              "internalType": "uint256",
              "name": "value",
              "type": "uint256"
            },
            {
              "internalType": "uint256",
              "name": "gas",
              "type": "uint256"
            },
            {
              "internalType": "uint256",
              "name": "nonce",
              "type": "uint256"
            },
            {
              "internalType": "bytes",
              "name": "data",
              "type": "bytes"
            }
          ],
          "internalType": "struct MetaForwarder.ForwardRequest",
          "name": "req",
          "type": "tuple"
        },
        {
          "internalType": "bytes",
          "name": "signature",
          "type": "bytes"
        }
      ],
      "name": "verify",
      "outputs": [
        {
          "internalType": "bool",
          "name": "",
          "type": "bool"
        }
      ],
      "stateMutability": "view",
      "type": "function"
    }
  ],
  "bytecode": "0x6101606040523480156200001257600080fd5b50604080518082018252600d81526c26b2ba30a337b93bb0b93232b960991b602080830191909152825180840190935260058352640312e302e360dc1b9083015290620000618260006200010f565b61012052620000728160016200010f565b61014052815160208084019190912060e052815190820120610100524660a0526200010060e05161010051604080517f8b73c3c69bb8fe3d512ecc4cf759cc79239f7b179b0ffacaa9a75d522b39400f60208201529081019290925260608201524660808201523060a082015260009060c00160405160208183030381529060405280519060200120905090565b60805250503060c0526200037d565b60006020835110156200012f57620001278362000148565b905062000142565b816200013c84826200023b565b5060ff90505b92915050565b600080829050601f815111156200017f578260405163305a27a960e01b815260040162000176919062000307565b60405180910390fd5b80516200018c8262000358565b179392505050565b634e487b7160e01b600052604160045260246000fd5b600181811c90821680620001bf57607f821691505b602082108103620001e057634e487b7160e01b600052602260045260246000fd5b50919050565b601f82111562000236576000816000526020600020601f850160051c81016020861015620002115750805b601f850160051c820191505b8181101562000232578281556001016200021d565b5050505b505050565b81516001600160401b0381111562000257576200025762000194565b6200026f81620002688454620001aa565b84620001e6565b602080601f831160018114620002a757600084156200028e5750858301515b600019600386901b1c1916600185901b17855562000232565b600085815260208120601f198616915b82811015620002d857888601518255948401946001909101908401620002b7565b5085821015620002f75787850151600019600388901b60f8161c191681555b5050505050600190811b01905550565b60006020808352835180602085015260005b81811015620003375785810183015185820160400152820162000319565b506000604082860101526040601f19601f8301168501019250505092915050565b80516020808301519190811015620001e05760001960209190910360031b1b16919050565b60805160a05160c05160e051610100516101205161014051611136620003d8600039600061042f015260006104050152600061096a015260006109420152600061089d015260006108c7015260006108f101526111366000f3fe6080604052600436106100705760003560e01c806384b0196e1161004e57806384b0196e14610118578063bf5d3bdb14610140578063d17e0cce14610160578063f698da251461018157600080fd5b80632d0335ab1461007557806347153f82146100be578063572b6c05146100df575b600080fd5b34801561008157600080fd5b506100ab610090366004610c75565b6001600160a01b031660009081526002602052604090205490565b6040519081526020015b60405180910390f35b6100d16100cc366004610ca5565b610196565b6040516100b5929190610d94565b3480156100eb57600080fd5b506101086100fa366004610c75565b6001600160a01b0316301490565b60405190151581526020016100b5565b34801561012457600080fd5b5061012d6103f7565b6040516100b59796959493929190610db7565b34801561014c57600080fd5b5061010861015b366004610ca5565b61047f565b61017361016e366004610e95565b6105fe565b6040516100b5929190610f01565b34801561018d57600080fd5b506100ab610783565b600060606101a585858561047f565b6101c257604051638baa579f60e01b815260040160405180910390fd5b6080850135600260006101d86020890189610c75565b6001600160a01b03166001600160a01b031681526020019081526020016000205414610262576002600061020f6020880188610c75565b6001600160a01b03166001600160a01b031681526020019081526020016000205485608001356040516306427aeb60e01b8152600401610259929190918252602082015260400190565b60405180910390fd5b600260006102736020880188610c75565b6001600160a01b031681526020810191909152604001600090812080549161029a83610f9b565b909155506102b090506040860160208701610c75565b6001600160a01b0316606086013560408701356102d060a0890189610fc2565b6102dd60208b018b610c75565b6040516020016102ef93929190611009565b60408051601f19818403018152908290526103099161102f565b600060405180830381858888f193505050503d8060008114610347576040519150601f19603f3d011682016040523d82523d6000602084013e61034c565b606091505b50909250905060808501356103676040870160208801610c75565b6001600160a01b031661037d6020880188610c75565b6001600160a01b03167f677445d08543c9aae41ffc1cdb0ea36a1d704694e5ba208e1a6227cbd579781585856040516103b7929190610d94565b60405180910390a4816103ef578051156103d45780518082602001fd5b806040516315fcd67560e01b8152600401610259919061104b565b935093915050565b60006060808280808361042a7f000000000000000000000000000000000000000000000000000000000000000083610792565b6104557f00000000000000000000000000000000000000000000000000000000000000006001610792565b60408051600080825260208201909252600f60f81b9b939a50919850469750309650945092509050565b60008061059284848080601f01602080910402602001604051908101604052809392919081815260200183838082843760009201919091525061058c92507fdd8f4b70b0f4393e889bd39128a30628a78b61816a9eb8199759e7a349657e4891506104ef905060208a018a610c75565b6104ff60408b0160208c01610c75565b60408b013560608c013560808d013561051b60a08f018f610fc2565b604051610529929190611074565b6040805191829003822060208301989098526001600160a01b0396871690820152949093166060850152608084019190915260a083015260c082015260e0810191909152610100016040516020818303038152906040528051906020012061083f565b9061086c565b90506080850135600260006105aa6020890189610c75565b6001600160a01b03166001600160a01b03168152602001908152602001600020541480156105f557506105e06020860186610c75565b6001600160a01b0316816001600160a01b0316145b95945050505050565b6060808483146106485760405162461bcd60e51b8152602060048201526015602482015274082e4e4c2f240d8cadccee8d040dad2e6dac2e8c6d605b1b6044820152606401610259565b8467ffffffffffffffff8111156106615761066161105e565b60405190808252806020026020018201604052801561068a578160200160208202803683370190505b5091508467ffffffffffffffff8111156106a6576106a661105e565b6040519080825280602002602001820160405280156106d957816020015b60608152602001906001900390816106c45790505b50905060005b85811015610778576107328787838181106106fc576106fc611084565b905060200281019061070e919061109a565b86868481811061072057610720611084565b90506020028101906100cc9190610fc2565b84838151811061074457610744611084565b6020026020010184848151811061075d5761075d611084565b602090810291909101019190915290151590526001016106df565b505b94509492505050565b600061078d610890565b905090565b606060ff83146107ac576107a5836109bb565b9050610839565b8180546107b8906110b0565b80601f01602080910402602001604051908101604052809291908181526020018280546107e4906110b0565b80156108315780601f1061080657610100808354040283529160200191610831565b820191906000526020600020905b81548152906001019060200180831161081457829003601f168201915b505050505090505b92915050565b600061083961084c610890565b8360405161190160f01b8152600281019290925260228201526042902090565b600080600061087b85856109fa565b9150915061088881610a3f565b509392505050565b6000306001600160a01b037f0000000000000000000000000000000000000000000000000000000000000000161480156108e957507f000000000000000000000000000000000000000000000000000000000000000046145b1561091357507f000000000000000000000000000000000000000000000000000000000000000090565b61078d604080517f8b73c3c69bb8fe3d512ecc4cf759cc79239f7b179b0ffacaa9a75d522b39400f60208201527f0000000000000000000000000000000000000000000000000000000000000000918101919091527f000000000000000000000000000000000000000000000000000000000000000060608201524660808201523060a082015260009060c00160405160208183030381529060405280519060200120905090565b606060006109c883610b8c565b604080516020808252818301909252919250600091906020820181803683375050509182525060208101929092525090565b6000808251604103610a305760208301516040840151606085015160001a610a2487828585610bb4565b94509450505050610a38565b506000905060025b9250929050565b6000816004811115610a5357610a536110ea565b03610a5b5750565b6001816004811115610a6f57610a6f6110ea565b03610abc5760405162461bcd60e51b815260206004820152601860248201527f45434453413a20696e76616c6964207369676e617475726500000000000000006044820152606401610259565b6002816004811115610ad057610ad06110ea565b03610b1d5760405162461bcd60e51b815260206004820152601f60248201527f45434453413a20696e76616c6964207369676e6174757265206c656e677468006044820152606401610259565b6003816004811115610b3157610b316110ea565b03610b895760405162461bcd60e51b815260206004820152602260248201527f45434453413a20696e76616c6964207369676e6174757265202773272076616c604482015261756560f01b6064820152608401610259565b50565b600060ff8216601f81111561083957604051632cd44ac360e21b815260040160405180910390fd5b6000807f7fffffffffffffffffffffffffffffff5d576e7357a4501ddfe92f46681b20a0831115610beb575060009050600361077a565b6040805160008082526020820180845289905260ff881692820192909252606081018690526080810185905260019060a0016020604051602081039080840390855afa158015610c3f573d6000803e3d6000fd5b5050604051601f1901519150506001600160a01b038116610c685760006001925092505061077a565b9660009650945050505050565b600060208284031215610c8757600080fd5b81356001600160a01b0381168114610c9e57600080fd5b9392505050565b600080600060408486031215610cba57600080fd5b833567ffffffffffffffff80821115610cd257600080fd5b9085019060c08288031215610ce657600080fd5b90935060208501359080821115610cfc57600080fd5b818601915086601f830112610d1057600080fd5b813581811115610d1f57600080fd5b876020828501011115610d3157600080fd5b6020830194508093505050509250925092565b60005b83811015610d5f578181015183820152602001610d47565b50506000910152565b60008151808452610d80816020860160208601610d44565b601f01601f19169290920160200192915050565b8215158152604060208201526000610daf6040830184610d68565b949350505050565b60ff60f81b881681526000602060e06020840152610dd860e084018a610d68565b8381036040850152610dea818a610d68565b606085018990526001600160a01b038816608086015260a0850187905284810360c08601528551808252602080880193509091019060005b81811015610e3e57835183529284019291840191600101610e22565b50909c9b505050505050505050505050565b60008083601f840112610e6257600080fd5b50813567ffffffffffffffff811115610e7a57600080fd5b6020830191508360208260051b8501011115610a3857600080fd5b60008060008060408587031215610eab57600080fd5b843567ffffffffffffffff80821115610ec357600080fd5b610ecf88838901610e50565b90965094506020870135915080821115610ee857600080fd5b50610ef587828801610e50565b95989497509550505050565b604080825283519082018190526000906020906060840190828701845b82811015610f3c578151151584529284019290840190600101610f1e565b50505083810382850152845180825282820190600581901b8301840187850160005b83811015610f8c57601f19868403018552610f7a838351610d68565b94870194925090860190600101610f5e565b50909998505050505050505050565b600060018201610fbb57634e487b7160e01b600052601160045260246000fd5b5060010190565b6000808335601e19843603018112610fd957600080fd5b83018035915067ffffffffffffffff821115610ff457600080fd5b602001915036819003821315610a3857600080fd5b8284823760609190911b6bffffffffffffffffffffffff19169101908152601401919050565b60008251611041818460208701610d44565b9190910192915050565b602081526000610c9e6020830184610d68565b634e487b7160e01b600052604160045260246000fd5b8183823760009101908152919050565b634e487b7160e01b600052603260045260246000fd5b6000823560be1983360301811261104157600080fd5b600181811c908216806110c457607f821691505b6020821081036110e457634e487b7160e01b600052602260045260246000fd5b50919050565b634e487b7160e01b600052602160045260246000fdfea2646970667358221220c7ec1277e23b95727fac4259630a09f64434ce8a4ffb1f5f45b88db30b8930f564736f6c63430008180033",
  "linkReferences": {},
  "deployedLinkReferences": {}
}