{
  "_format": "hh-sol-artifact-1",
  "contractName": "ProjectRegistry",
  "sourceName": "contracts/ProjectRegistry.sol",
  "abi": [
    {
      "inputs": [
        {
          "internalType": "address",
          "name": "owner",
          "type": "address"
        },
        {
          "internalType": "address",
          "name": "_treasury",
          "type": "address"
        }
      ],
      "stateMutability": "nonpayable",
      "type": "constructor"
    },
    {
      "inputs": [
        {
          "internalType": "address",
          "name": "citizen",
          "type": "address"
        },
        {
          "internalType": "uint256",
          "name": "projectId",
          "type": "uint256"
        }
      ],
      "name": "AlreadyUpvoted",
      "type": "error"
    },
    {
      "inputs": [
        {
          "internalType": "uint256",
          "name": "available",
          "type": "uint256"
        },
        {
          "internalType": "uint256",
          "name": "required",
          "type": "uint256"
        }
      ],
      "name": "InsufficientFunding",
      "type": "error"
    },
    {
      "inputs": [
        {
          "internalType": "uint256",
          "name": "amount",
          "type": "uint256"
        }
      ],
      "name": "InvalidAmount",
      "type": "error"
    },
    {
      "inputs": [
        {
          "internalType": "uint256",
          "name": "projectId",
          "type": "uint256"
        },
        {
          "internalType": "uint8",
          "name": "milestoneNumber",
          "type": "uint8"
        }
      ],
      "name": "InvalidMilestone",
      "type": "error"
    },
    {
      "inputs": [
        {
          "internalType": "enum ProjectRegistry.Status",
          "name": "current",
          "type": "uint8"
        },
        {
          "internalType": "enum ProjectRegistry.Status",
          "name": "required",
          "type": "uint8"
        }
      ],
      "name": "InvalidProjectStatus",
      "type": "error"
    },
    {
      "inputs": [
        {
          "internalType": "uint256",
          "name": "projectId",
          "type": "uint256"
        },
        {
          "internalType": "uint8",
          "name": "milestoneNumber",
          "type": "uint8"
        }
      ],
      "name": "MilestoneAlreadyCompleted",
      "type": "error"
    },
    {
      "inputs": [
        {
          "internalType": "uint256",
          "name": "projectId",
          "type": "uint256"
        }
      ],
      "name": "ProjectNotFound",
      "type": "error"
    },
    {
      "inputs": [],
      "name": "TreasuryNotSet",
      "type": "error"
    },
    {
      "inputs": [
        {
          "internalType": "address",
          "name": "caller",
          "type": "address"
        },
        {
          "internalType": "address",
          "name": "expectedManager",
          "type": "address"
        }
      ],
      "name": "UnauthorizedManager",
      "type": "error"
    },
    {
      "anonymous": false,
      "inputs": [
        {
          "indexed": true,
          "internalType": "uint256",
          "name": "projectId",
          "type": "uint256"
        },
        {
          "indexed": true,
          "internalType": "address",
          "name": "citizen",
          "type": "address"
        }
      ],
      "name": "CitizenUpvote",
      "type": "event"
    },
    {
      "anonymous": false,
      "inputs": [
        {
          "indexed": true,
          "internalType": "uint256",
          "name": "projectId",
          "type": "uint256"
        },
        {
          "indexed": true,
          "internalType": "uint8",
          "name": "milestoneNumber",
          "type": "uint8"
        },
        {
          "indexed": false,
          "internalType": "bytes32",
          "name": "proofHash",
          "type": "bytes32"
        },
        {
          "indexed": false,
          "internalType": "uint256",
          "name": "amount",
          "type": "uint256"
        },
        {
          "indexed": true,
          "internalType": "address",
          "name": "manager",
          "type": "address"
        }
      ],
      "name": "MilestoneSubmitted",
      "type": "event"
    },
    {
      "anonymous": false,
      "inputs": [
        {
          "indexed": false,
          "internalType": "address",
          "name": "account",
          "type": "address"
        }
      ],
      "name": "Paused",
      "type": "event"
    },
    {
      "anonymous": false,
      "inputs": [
        {
          "indexed": true,
          "internalType": "uint256",
          "name": "projectId",
          "type": "uint256"
        },
        {
          "indexed": false,
          "internalType": "string",
          "name": "reason",
          "type": "string"
        }
      ],
      "name": "ProjectCancelled",
      "type": "event"
    },
    {
      "anonymous": false,
      "inputs": [
        {
          "indexed": true,
          "internalType": "uint256",
          "name": "projectId",
          "type": "uint256"
        },
        {
          "indexed": true,
          "internalType": "address",
          "name": "manager",
          "type": "address"
        },
        {
          "indexed": false,
          "internalType": "uint256",
          "name": "totalReleased",
          "type": "uint256"
        }
      ],
      "name": "ProjectCompleted",
      "type": "event"
    },
    {
      "anonymous": false,
      "inputs": [
        {
          "indexed": true,
          "internalType": "uint256",
          "name": "projectId",
          "type": "uint256"
        },
        {
          "indexed": true,
          "internalType": "uint256",
          "name": "areaId",
          "type": "uint256"
        },
        {
          "indexed": true,
          "internalType": "address",
          "name": "manager",
          "type": "address"
        },
        {
          "indexed": false,
          "internalType": "bytes32",
          "name": "titleHash",
          "type": "bytes32"
        },
        {
          "indexed": false,
          "internalType": "uint256",
          "name": "fundingGoal",
          "type": "uint256"
        }
      ],
      "name": "ProjectCreated",
      "type": "event"
    },
    {
      "anonymous": false,
      "inputs": [
        {
          "indexed": true,
          "internalType": "uint256",
          "name": "projectId",
          "type": "uint256"
        },
        {
          "indexed": false,
          "internalType": "uint256",
          "name": "amount",
          "type": "uint256"
        },
        {
          "indexed": true,
          "internalType": "address",
          "name": "funder",
          "type": "address"
        }
      ],
      "name": "ProjectFunded",
      "type": "event"
    },
    {
      "anonymous": false,
      "inputs": [
        {
          "indexed": true,
          "internalType": "bytes32",
          "name": "role",
          "type": "bytes32"
        },
        {
          "indexed": true,
          "internalType": "bytes32",
          "name": "previousAdminRole",
          "type": "bytes32"
        },
        {
          "indexed": true,
          "internalType": "bytes32",
          "name": "newAdminRole",
          "type": "bytes32"
        }
      ],
      "name": "RoleAdminChanged",
      "type": "event"
    },
    {
      "anonymous": false,
      "inputs": [
        {
          "indexed": true,
          "internalType": "bytes32",
          "name": "role",
          "type": "bytes32"
        },
        {
          "indexed": true,
          "internalType": "address",
          "name": "account",
          "type": "address"
        },
        {
          "indexed": true,
          "internalType": "address",
          "name": "sender",
          "type": "address"
        }
      ],
      "name": "RoleGranted",
      "type": "event"
    },
    {
      "anonymous": false,
      "inputs": [
        {
          "indexed": true,
          "internalType": "bytes32",
          "name": "role",
          "type": "bytes32"
        },
        {
          "indexed": true,
          "internalType": "address",
          "name": "account",
          "type": "address"
        },
        {
          "indexed": true,
          "internalType": "address",
          "name": "sender",
          "type": "address"
        }
      ],
      "name": "RoleRevoked",
      "type": "event"
    },
    {
      "anonymous": false,
      "inputs": [
        {
          "indexed": false,
          "internalType": "address",
          "name": "account",
          "type": "address"
        }
      ],
      "name": "Unpaused",
      "type": "event"
    },
    {
      "inputs": [],
      "name": "DEFAULT_ADMIN_ROLE",
      "outputs": [
        {
          "internalType": "bytes32",
          "name": "",
          "type": "bytes32"
        }
      ],
      "stateMutability": "view",
      "type": "function"
    },
    {
      "inputs": [
        {
          "internalType": "uint256",
          "name": "",
          "type": "uint256"
        },
        {
          "internalType": "uint256",
          "name": "",
          "type": "uint256"
        }
      ],
      "name": "areaProjects",
      "outputs": [
        {
          "internalType": "uint256",
          "name": "",
          "type": "uint256"
        }
      ],
      "stateMutability": "view",
      "type": "function"
    },
    {
      "inputs": [
        {
          "internalType": "uint256",
          "name": "projectId",
          "type": "uint256"
        },
        {
          "internalType": "string",
          "name": "reason",
          "type": "string"
        }
      ],
      "name": "cancelProject",
      "outputs": [],
      "stateMutability": "nonpayable",
      "type": "function"
    },
    {
      "inputs": [
        {
          "internalType": "uint256",
          "name": "areaId",
          "type": "uint256"
        },
        {
          "internalType": "bytes32",
          "name": "titleHash",
          "type": "bytes32"
        },
        {
          "internalType": "bytes32",
          "name": "descriptionHash",
          "type": "bytes32"
        },
        {
          "internalType": "address",
          "name": "manager",
          "type": "address"
        },
        {
          "internalType": "uint256",
          "name": "fundingGoal",
          "type": "uint256"
        }
      ],
      "name": "createProject",
      "outputs": [
        {
          "internalType": "uint256",
          "name": "",
          "type": "uint256"
        }
      ],
      "stateMutability": "nonpayable",
      "type": "function"
    },
    {
      "inputs": [
        {
          "internalType": "uint256",
          "name": "projectId",
          "type": "uint256"
        }
      ],
      "name": "fundProject",
      "outputs": [],
      "stateMutability": "payable",
      "type": "function"
    },
    {
      "inputs": [
        {
          "internalType": "uint256",
          "name": "areaId",
          "type": "uint256"
        }
      ],
      "name": "getAreaProjects",
      "outputs": [
        {
          "internalType": "uint256[]",
          "name": "",
          "type": "uint256[]"
        }
      ],
      "stateMutability": "view",
      "type": "function"
    },
    {
      "inputs": [
        {
          "internalType": "address",
          "name": "manager",
          "type": "address"
        }
      ],
      "name": "getManagerProjects",
      "outputs": [
        {
          "internalType": "uint256[]",
          "name": "",
          "type": "uint256[]"
        }
      ],
      "stateMutability": "view",
      "type": "function"
    },
    {
      "inputs": [
        {
          "internalType": "uint256",
          "name": "projectId",
          "type": "uint256"
        },
        {
          "internalType": "uint8",
          "name": "milestoneNumber",
          "type": "uint8"
        }
      ],
      "name": "getMilestone",
      "outputs": [
        {
          "components": [
            {
              "internalType": "uint256",
              "name": "projectId",
              "type": "uint256"
            },
            {
              "internalType": "uint8",
              "name": "milestoneNumber",
              "type": "uint8"
            },
            {
              "internalType": "bytes32",
              "name": "proofHash",
              "type": "bytes32"
            },
            {
              "internalType": "uint256",
              "name": "amount",
              "type": "uint256"
            },
            {
              "internalType": "bool",
              "name": "completed",
              "type": "bool"
            },
            {
              "internalType": "uint256",
              "name": "completedAt",
              "type": "uint256"
            },
            {
              "internalType": "address",
              "name": "submittedBy",
              "type": "address"
            }
          ],
          "internalType": "struct ProjectRegistry.Milestone",
          "name": "",
          "type": "tuple"
        }
      ],
      "stateMutability": "view",
      "type": "function"
    },
    {
      "inputs": [
        {
          "internalType": "uint256",
          "name": "projectId",
          "type": "uint256"
        }
      ],
      "name": "getProject",
      "outputs": [
        {
          "components": [
            {
              "internalType": "uint256",
              "name": "id",
              "type": "uint256"
            },
            {
              "internalType": "uint256",
              "name": "areaId",
              "type": "uint256"
            },
            {
              "internalType": "bytes32",
              "name": "titleHash",
              "type": "bytes32"
            },
            {
              "internalType": "bytes32",
              "name": "descriptionHash",
              "type": "bytes32"
            },
            {
              "internalType": "address",
              "name": "manager",
              "type": "address"
            },
            {
              "internalType": "uint256",
              "name": "fundingGoal",
              "type": "uint256"
            },
            {
              "internalType": "uint256",
              "name": "escrowed",
              "type": "uint256"
            },
            {
              "internalType": "uint256",
              "name": "released",
              "type": "uint256"
            },
            {
              "internalType": "enum ProjectRegistry.Status",
              "name": "status",
              "type": "uint8"
            },
            {
              "internalType": "uint8",
              "name": "milestoneCount",
              "type": "uint8"
            },
            {
              "internalType": "uint8",
              "name": "currentMilestone",
              "type": "uint8"
            },
            {
              "internalType": "uint256",
              "name": "citizenUpvotes",
              "type": "uint256"
            },
            {
              "internalType": "uint256",
              "name": "createdAt",
              "type": "uint256"
            }
          ],
          "internalType": "struct ProjectRegistry.Project",
          "name": "",
          "type": "tuple"
        }
      ],
      "stateMutability": "view",
      "type": "function"
    },
    {
      "inputs": [
        {
          "internalType": "uint256",
          "name": "projectId",
          "type": "uint256"
        }
      ],
      "name": "getRemainingFunds",
      "outputs": [
        {
          "internalType": "uint256",
          "name": "",
          "type": "uint256"
        }
      ],
      "stateMutability": "view",
      "type": "function"
    },
    {
      "inputs": [
        {
          "internalType": "bytes32",
          "name": "role",
          "type": "bytes32"
        }
      ],
      "name": "getRoleAdmin",
      "outputs": [
        {
          "internalType": "bytes32",
          "name": "",
          "type": "bytes32"
        }
      ],
      "stateMutability": "view",
      "type": "function"
    },
    {
      "inputs": [],
      "name": "getTotalProjects",
      "outputs": [
        {
          "internalType": "uint256",
          "name": "",
          "type": "uint256"
        }
      ],
      "stateMutability": "view",
      "type": "function"
    },
    {
      "inputs": [
        {
          "internalType": "bytes32",
          "name": "role",
          "type": "bytes32"
        },
        {
          "internalType": "address",
          "name": "account",
          "type": "address"
        }
      ],
      "name": "grantRole",
      "outputs": [],
      "stateMutability": "nonpayable",
      "type": "function"
    },
    {
      "inputs": [
        {
          "internalType": "bytes32",
          "name": "role",
          "type": "bytes32"
        },
        {
          "internalType": "address",
          "name": "account",
          "type": "address"
        }
      ],
      "name": "hasRole",
      "outputs": [
        {
          "internalType": "bool",
          "name": "",
          "type": "bool"
        }
      ],
      "stateMutability": "view",
      "type": "function"
    },
    {
      "inputs": [
        {
          "internalType": "uint256",
          "name": "projectId",
          "type": "uint256"
        },
        {
          "internalType": "address",
          "name": "citizen",
          "type": "address"
        }
      ],
      "name": "hasUpvoted",
      "outputs": [
        {
          "internalType": "bool",
          "name": "",
          "type": "bool"
        }
      ],
      "stateMutability": "view",
      "type": "function"
    },
    {
      "inputs": [
        {
          "internalType": "address",
          "name": "",
          "type": "address"
        },
        {
          "internalType": "uint256",
          "name": "",
          "type": "uint256"
        }
      ],
      "name": "managerProjects",
      "outputs": [
        {
          "internalType": "uint256",
          "name": "",
          "type": "uint256"
        }
      ],
      "stateMutability": "view",
      "type": "function"
    },
    {
      "inputs": [
        {
          "internalType": "uint256",
          "name": "projectId",
          "type": "uint256"
        }
      ],
      "name": "markCompleted",
      "outputs": [],
      "stateMutability": "nonpayable",
      "type": "function"
    },
    {
      "inputs": [
        {
          "internalType": "uint256",
          "name": "",
          "type": "uint256"
        },
        {
          "internalType": "uint8",
          "name": "",
          "type": "uint8"
        }
      ],
      "name": "milestones",
      "outputs": [
        {
          "internalType": "uint256",
          "name": "projectId",
          "type": "uint256"
        },
        {
          "internalType": "uint8",
          "name": "milestoneNumber",
          "type": "uint8"
        },
        {
          "internalType": "bytes32",
          "name": "proofHash",
          "type": "bytes32"
        },
        {
          "internalType": "uint256",
          "name": "amount",
          "type": "uint256"
        },
        {
          "internalType": "bool",
          "name": "completed",
          "type": "bool"
        },
        {
          "internalType": "uint256",
          "name": "completedAt",
          "type": "uint256"
        },
        {
          "internalType": "address",
          "name": "submittedBy",
          "type": "address"
        }
      ],
      "stateMutability": "view",
      "type": "function"
    },
    {
      "inputs": [],
      "name": "pause",
      "outputs": [],
      "stateMutability": "nonpayable",
      "type": "function"
    },
    {
      "inputs": [],
      "name": "paused",
      "outputs": [
        {
          "internalType": "bool",
          "name": "",
          "type": "bool"
        }
      ],
      "stateMutability": "view",
      "type": "function"
    },
    {
      "inputs": [
        {
          "internalType": "uint256",
          "name": "",
          "type": "uint256"
        },
        {
          "internalType": "address",
          "name": "",
          "type": "address"
        }
      ],
      "name": "projectUpvotes",
      "outputs": [
        {
          "internalType": "bool",
          "name": "",
          "type": "bool"
        }
      ],
      "stateMutability": "view",
      "type": "function"
    },
    {
      "inputs": [
        {
          "internalType": "uint256",
          "name": "",
          "type": "uint256"
        }
      ],
      "name": "projects",
      "outputs": [
        {
          "internalType": "uint256",
          "name": "id",
          "type": "uint256"
        },
        {
          "internalType": "uint256",
          "name": "areaId",
          "type": "uint256"
        },
        {
          "internalType": "bytes32",
          "name": "titleHash",
          "type": "bytes32"
        },
        {
          "internalType": "bytes32",
          "name": "descriptionHash",
          "type": "bytes32"
        },
        {
          "internalType": "address",
          "name": "manager",
          "type": "address"
        },
        {
          "internalType": "uint256",
          "name": "fundingGoal",
          "type": "uint256"
        },
        {
          "internalType": "uint256",
          "name": "escrowed",
          "type": "uint256"
        },
        {
          "internalType": "uint256",
          "name": "released",
          "type": "uint256"
        },
        {
          "internalType": "enum ProjectRegistry.Status",
          "name": "status",
          "type": "uint8"
        },
        {
          "internalType": "uint8",
          "name": "milestoneCount",
          "type": "uint8"
        },
        {
          "internalType": "uint8",
          "name": "currentMilestone",
          "type": "uint8"
        },
        {
          "internalType": "uint256",
          "name": "citizenUpvotes",
          "type": "uint256"
        },
        {
          "internalType": "uint256",
          "name": "createdAt",
          "type": "uint256"
        }
      ],
      "stateMutability": "view",
      "type": "function"
    },
    {
      "inputs": [
        {
          "internalType": "bytes32",
          "name": "role",
          "type": "bytes32"
        },
        {
          "internalType": "address",
          "name": "account",
          "type": "address"
        }
      ],
      "name": "renounceRole",
      "outputs": [],
      "stateMutability": "nonpayable",
      "type": "function"
    },
    {
      "inputs": [
        {
          "internalType": "bytes32",
          "name": "role",
          "type": "bytes32"
        },
        {
          "internalType": "address",
          "name": "account",
          "type": "address"
        }
      ],
      "name": "revokeRole",
      "outputs": [],
      "stateMutability": "nonpayable",
      "type": "function"
    },
    {
      "inputs": [
        {
          "internalType": "address",
          "name": "_treasury",
          "type": "address"
        }
      ],
      "name": "setTreasury",
      "outputs": [],
      "stateMutability": "nonpayable",
      "type": "function"
    },
    {
      "inputs": [
        {
          "internalType": "uint256",
          "name": "projectId",
          "type": "uint256"
        },
        {
          "internalType": "bytes32",
          "name": "proofHash",
          "type": "bytes32"
        },
        {
          "internalType": "uint256",
          "name": "amount",
          "type": "uint256"
        }
      ],
      "name": "submitMilestone",
      "outputs": [],
      "stateMutability": "nonpayable",
      "type": "function"
    },
    {
      "inputs": [
        {
          "internalType": "bytes4",
          "name": "interfaceId",
          "type": "bytes4"
        }
      ],
      "name": "supportsInterface",
      "outputs": [
        {
          "internalType": "bool",
          "name": "",
          "type": "bool"
        }
      ],
      "stateMutability": "view",
      "type": "function"
    },
    {
      "inputs": [],
      "name": "treasury",
      "outputs": [
        {
          "internalType": "address",
          "name": "",
          "type": "address"
        }
      ],
      "stateMutability": "view",
      "type": "function"
    },
    {
      "inputs": [],
      "name": "unpause",
      "outputs": [],
      "stateMutability": "nonpayable",
      "type": "function"
    },
    {
      "inputs": [
        {
          "internalType": "uint256",
          "name": "projectId",
          "type": "uint256"
        }
      ],
      "name": "upvoteProject",
      "outputs": [],
      "stateMutability": "nonpayable",
      "type": "function"
    }
  ],
  "bytecode": "0x60806040523480156200001157600080fd5b5060405162002699380380620026998339810160408190526200003491620001ac565b6001805460ff191681556002556200005c6000805160206200267983398151915283620000a3565b62000077600080516020620026798339815191528062000144565b600980546001600160a01b0319166001600160a01b0392909216919091179055506001600355620001e4565b6000828152602081815260408083206001600160a01b038516845290915290205460ff1662000140576000828152602081815260408083206001600160a01b03851684529091529020805460ff19166001179055620000ff3390565b6001600160a01b0316816001600160a01b0316837f2f8788117e7eff1d82e926ec794901d17c78024a50270940304540a733656f0d60405160405180910390a45b5050565b600082815260208190526040808220600101805490849055905190918391839186917fbd79b86ffe0ab8e8776151514217cd7cacd52c909f66475c3af44e129f0b00ff9190a4505050565b80516001600160a01b0381168114620001a757600080fd5b919050565b60008060408385031215620001c057600080fd5b620001cb836200018f565b9150620001db602084016200018f565b90509250929050565b61248580620001f46000396000f3fe6080604052600436106101cd5760003560e01c80637e680b84116100f7578063c7e41fa611610095578063d547741f11610064578063d547741f1461070d578063ddf2ef851461072d578063f0f3f2c8146107de578063f0f442601461080b57600080fd5b8063c7e41fa61461068d578063cac5c512146106ad578063cb4b4ff8146106cd578063d133bcf0146106ed57600080fd5b80638456cb59116100d15780638456cb59146105fd57806391d1485414610612578063a217fddf14610632578063a52c86581461064757600080fd5b80637e680b8414610580578063812739a2146105bb578063843f562f146105d057600080fd5b80634c035d821161016f57806356fc24641161013e57806356fc2464146104fd5780635c975abb1461051d57806361d027b3146105355780636c563abe1461056d57600080fd5b80634c035d821461047d57806350fadbe01461049d578063552c2d4b146104bd578063553ab9a1146104dd57600080fd5b8063248a9ca3116101ab578063248a9ca3146103e85780632f2ff15d1461042657806336568abe146104485780633f4ba83a1461046857600080fd5b806301ffc9a7146101d2578063056da8df14610207578063107046bd1461033c575b600080fd5b3480156101de57600080fd5b506101f26101ed366004611e7d565b61082b565b60405190151581526020015b60405180910390f35b34801561021357600080fd5b506102dd610222366004611ea7565b6040805160e081018252600080825260208201819052918101829052606081018290526080810182905260a0810182905260c081019190915250600082815260056020818152604080842060ff808716865290835293819020815160e081018352815481526001820154861693810193909352600281015491830191909152600381015460608301526004810154909316151560808201529082015460a08201526006909101546001600160a01b031660c082015292915050565b6040516101fe91908151815260208083015160ff1690820152604080830151908201526060808301519082015260808083015115159082015260a0808301519082015260c0918201516001600160a01b03169181019190915260e00190565b34801561034857600080fd5b506103cf610357366004611edd565b600460208190526000918252604090912080546001820154600283015460038401549484015460058501546006860154600787015460088801546009890154600a909901549799969895976001600160a01b039095169593949293919260ff808316936101008404821693620100009004909116918d565b6040516101fe9d9c9b9a99989796959493929190611f2e565b3480156103f457600080fd5b50610418610403366004611edd565b60009081526020819052604090206001015490565b6040519081526020016101fe565b34801561043257600080fd5b50610446610441366004611fcd565b61083c565b005b34801561045457600080fd5b50610446610463366004611fcd565b610866565b34801561047457600080fd5b506104466108e9565b34801561048957600080fd5b50610446610498366004611edd565b61090c565b3480156104a957600080fd5b506104186104b8366004611edd565b610a30565b3480156104c957600080fd5b506104186104d8366004611ff9565b610b4c565b3480156104e957600080fd5b506104186104f8366004612040565b610deb565b34801561050957600080fd5b50610418610518366004612062565b610e1c565b34801561052957600080fd5b5060015460ff166101f2565b34801561054157600080fd5b50600954610555906001600160a01b031681565b6040516001600160a01b0390911681526020016101fe565b61044661057b366004611edd565b610e38565b34801561058c57600080fd5b506101f261059b366004611fcd565b600860209081526000928352604080842090915290825290205460ff1681565b3480156105c757600080fd5b50610418610f61565b3480156105dc57600080fd5b506105f06105eb36600461208c565b610f77565b6040516101fe91906120a7565b34801561060957600080fd5b50610446610fe3565b34801561061e57600080fd5b506101f261062d366004611fcd565b611003565b34801561063e57600080fd5b50610418600081565b34801561065357600080fd5b506101f2610662366004611fcd565b60009182526008602090815260408084206001600160a01b0393909316845291905290205460ff1690565b34801561069957600080fd5b506104466106a83660046120eb565b61102c565b3480156106b957600080fd5b506104466106c8366004611edd565b6114a1565b3480156106d957600080fd5b506105f06106e8366004611edd565b6115a2565b3480156106f957600080fd5b50610446610708366004612117565b611602565b34801561071957600080fd5b50610446610728366004611fcd565b6117fe565b34801561073957600080fd5b5061079c610748366004611ea7565b600560208181526000938452604080852090915291835291208054600182015460028301546003840154600485015495850154600690950154939560ff93841695929491931691906001600160a01b031687565b6040805197885260ff90961660208801529486019390935260608501919091521515608084015260a08301526001600160a01b031660c082015260e0016101fe565b3480156107ea57600080fd5b506107fe6107f9366004611edd565b611823565b6040516101fe9190612193565b34801561081757600080fd5b5061044661082636600461208c565b61199e565b6000610836826119d9565b92915050565b60008281526020819052604090206001015461085781611a0e565b6108618383611a18565b505050565b6001600160a01b03811633146108db5760405162461bcd60e51b815260206004820152602f60248201527f416363657373436f6e74726f6c3a2063616e206f6e6c792072656e6f756e636560448201526e103937b632b9903337b91039b2b63360891b60648201526084015b60405180910390fd5b6108e58282611a9c565b5050565b60008051602061243083398151915261090181611a0e565b610909611b01565b50565b7f8f1426173eb922d2001706a308dabfa96e3c06475230fb5111184f70a4b5776d61093681611a0e565b61093e611b53565b600082815260046020526040812080549091036109715760405163a89b369d60e01b8152600481018490526024016108d2565b600083815260086020908152604080832033845290915290205460ff16156109b55760405163361c8a7d60e21b8152336004820152602481018490526044016108d2565b60008381526008602090815260408083203384529091528120805460ff19166001179055600982018054916109e983612261565b91905055506109f53390565b6001600160a01b0316837fa63c9be52c7e1c7941cd1c5457bf2926f545b9c19da05e84de07e204919bd14f60405160405180910390a3505050565b600081815260046020818152604080842081516101a0810183528154815260018201549381019390935260028101549183019190915260038101546060830152808301546001600160a01b03166080830152600581015460a0830152600681015460c0830152600781015460e08301526008810154849361010084019160ff1690811115610ac057610ac0611ef6565b6004811115610ad157610ad1611ef6565b8152600882015460ff6101008204811660208401526201000090910416604082015260098201546060820152600a909101546080909101528051909150600003610b315760405163a89b369d60e01b8152600481018490526024016108d2565b8060e001518160c00151610b45919061227a565b9392505050565b60007fb302d06c4efadeded1e387e0955d9d440d227b6b55549296dd39bd21dc8eddf9610b7881611a0e565b610b80611b53565b82600003610ba457604051633728b83d60e01b8152600481018490526024016108d2565b6001600160a01b038416610bdd57604051633b9dc06d60e11b8152600060048201526001600160a01b03851660248201526044016108d2565b6003805460009182610bee83612261565b919050559050604051806101a00160405280828152602001898152602001888152602001878152602001866001600160a01b03168152602001858152602001600081526020016000815260200160006004811115610c4e57610c4e611ef6565b8152600060208083018290526001604080850182905260608086018590524260809687015287855260048085529482902087518155938701518484015590860151600284015585015160038301559284015181830180546001600160a01b0319166001600160a01b0390921691909117905560a0840151600582015560c0840151600682015560e0840151600782015561010084015160088201805492949193909260ff191691908490811115610d0757610d07611ef6565b021790555061012082015160088201805461014085015160ff908116620100000262ff00001991909416610100021662ffff001990911617919091179055610160820151600982015561018090910151600a909101556000888152600660209081526040808320805460018181018355918552838520018590556001600160a01b03891680855260078452828520805492830181558552938390200184905580518a81529182018790528a9184917fcc1af95b672dc628636fbbda6fae4668d1403fb20f8b022bff7ac2d3ae85c618910160405180910390a4979650505050505050565b60066020528160005260406000208181548110610e0757600080fd5b90600052602060002001600091509150505481565b60076020528160005260406000208181548110610e0757600080fd5b600080516020612430833981519152610e5081611a0e565b610e58611b53565b60008281526004602052604081208054909103610e8b5760405163a89b369d60e01b8152600481018490526024016108d2565b6000600882015460ff166004811115610ea657610ea6611ef6565b14610ed0576008810154604051636d94790960e11b81526108d29160ff169060009060040161228d565b8060050154341015610f03576005810154604051622f087f60ea1b815234600482015260248101919091526044016108d2565b34600682015560088101805460ff19166001179055336001600160a01b0316837f26aac1e3160af10ef601ed7c1de8d440bfc3c39184731c5bb124ee8464e9fb6d34604051610f5491815260200190565b60405180910390a3505050565b60006001600354610f72919061227a565b905090565b6001600160a01b038116600090815260076020908152604091829020805483518184028101840190945280845260609392830182828015610fd757602002820191906000526020600020905b815481526020019060010190808311610fc3575b50505050509050919050565b600080516020612430833981519152610ffb81611a0e565b610909611b9b565b6000918252602082815260408084206001600160a01b0393909316845291905290205460ff1690565b611034611bd6565b61103c611b53565b6000838152600460205260408120805490910361106f5760405163a89b369d60e01b8152600481018590526024016108d2565b60048101546001600160a01b0316336001600160a01b0316146110bd57600481810154604051633b9dc06d60e11b815233928101929092526001600160a01b031660248201526044016108d2565b6001600882015460ff1660048111156110d8576110d8611ef6565b141580156110ff57506002600882015460ff1660048111156110fc576110fc611ef6565b14155b15611129576008810154604051636d94790960e11b81526108d29160ff169060029060040161228d565b8160000361114d57604051633728b83d60e01b8152600481018390526024016108d2565b806006015482826007015461116291906122a8565b111561119f578060070154816006015461117c919061227a565b604051622f087f60ea1b81526004810191909152602481018390526044016108d2565b6008810154600085815260056020908152604080832060ff620100009095048516808552925290912060040154909116156111f957604051636657bbef60e11b81526004810186905260ff821660248201526044016108d2565b6040518060e001604052808681526020018260ff1681526020018581526020018481526020016001151581526020014281526020016112353390565b6001600160a01b03908116909152600087815260056020818152604080842060ff8881168652908352818520875181559287015160018401805460ff199081169290931691909117905590860151600283015560608601516003830155608086015160048301805490921690151517905560a08501519181019190915560c090930151600690930180546001600160a01b031916939092169290921790556007830180548592906112e79084906122a8565b909155505060088201805462010000900460ff16906002611307836122bb565b825460ff91821661010093840a90810290830219909116179092556008850154041660000390506113485760088201805461ff00191661010017905561137c565b600882018054610100900460ff16906001611362836122bb565b91906101000a81548160ff021916908360ff160217905550505b6001600883015460ff16600481111561139757611397611ef6565b036113ac5760088201805460ff191660021790555b60048201546040516000916001600160a01b03169085908381818185875af1925050503d80600081146113fb576040519150601f19603f3d011682016040523d82523d6000602084013e611400565b606091505b50509050806114435760405162461bcd60e51b815260206004820152600f60248201526e151c985b9cd9995c8819985a5b1959608a1b60448201526064016108d2565b600483015460408051878152602081018790526001600160a01b039092169160ff85169189917f494a951fbdc79cd1bec2eb564a2e80adb8bde311af043bab11b0f8f561fb9b51910160405180910390a45050506108616001600255565b7fb302d06c4efadeded1e387e0955d9d440d227b6b55549296dd39bd21dc8eddf96114cb81611a0e565b6114d3611b53565b600082815260046020526040812080549091036115065760405163a89b369d60e01b8152600481018490526024016108d2565b6002600882015460ff16600481111561152157611521611ef6565b1461154b576008810154604051636d94790960e11b81526108d29160ff169060029060040161228d565b60088101805460ff19166003179055600481015460078201546040519081526001600160a01b039091169084907fcd1dbe2ce745820f60f93df9d589ab9aca1c122559087027c76d1eb59ced615b90602001610f54565b600081815260066020908152604091829020805483518184028101840190945280845260609392830182828015610fd75760200282019190600052602060002090815481526020019060010190808311610fc35750505050509050919050565b7fb302d06c4efadeded1e387e0955d9d440d227b6b55549296dd39bd21dc8eddf961162c81611a0e565b611634611bd6565b61163c611b53565b6000848152600460205260408120805490910361166f5760405163a89b369d60e01b8152600481018690526024016108d2565b6003600882015460ff16600481111561168a5761168a611ef6565b14806116ae57506004600882015460ff1660048111156116ac576116ac611ef6565b145b156116d8576008810154604051636d94790960e11b81526108d29160ff169060029060040161228d565b6000816007015482600601546116ee919061227a565b60088301805460ff191660041790559050801580159061171857506009546001600160a01b031615155b156117b2576009546040516000916001600160a01b03169083908381818185875af1925050503d806000811461176a576040519150601f19603f3d011682016040523d82523d6000602084013e61176f565b606091505b50509050806117b05760405162461bcd60e51b815260206004820152600d60248201526c1499599d5b990819985a5b1959609a1b60448201526064016108d2565b505b857fe7363f683feda2b17483c6e10af6e5a1f9cb972517b8deee8e52cd68c660a37386866040516117e49291906122da565b60405180910390a250506117f86001600255565b50505050565b60008281526020819052604090206001015461181981611a0e565b6108618383611a9c565b604080516101a081018252600080825260208201819052918101829052606081018290526080810182905260a0810182905260c0810182905260e08101829052610100810182905261012081018290526101408101829052610160810182905261018081019190915260008281526004602052604081205490036118bd5760405163a89b369d60e01b8152600481018390526024016108d2565b60008281526004602081815260409283902083516101a0810185528154815260018201549281019290925260028101549382019390935260038301546060820152828201546001600160a01b03166080820152600583015460a0820152600683015460c0820152600783015460e0820152600883015490929161010084019160ff169081111561194f5761194f611ef6565b600481111561196057611960611ef6565b8152600882015460ff6101008204811660208401526201000090910416604082015260098201546060820152600a9091015460809091015292915050565b6000805160206124308339815191526119b681611a0e565b50600980546001600160a01b0319166001600160a01b0392909216919091179055565b60006001600160e01b03198216637965db0b60e01b148061083657506301ffc9a760e01b6001600160e01b0319831614610836565b6109098133611c2d565b611a228282611003565b6108e5576000828152602081815260408083206001600160a01b03851684529091529020805460ff19166001179055611a583390565b6001600160a01b0316816001600160a01b0316837f2f8788117e7eff1d82e926ec794901d17c78024a50270940304540a733656f0d60405160405180910390a45050565b611aa68282611003565b156108e5576000828152602081815260408083206001600160a01b0385168085529252808320805460ff1916905551339285917ff6391f5c32d9c69d2a47ea670b442974b53935d1edc7fd64eb21e047a839171b9190a45050565b611b09611c86565b6001805460ff191690557f5db9ee0a495bf2e6ff9c91a7834c1ba4fdd244a5e8aa4e537bd38aeae4b073aa335b6040516001600160a01b03909116815260200160405180910390a1565b60015460ff1615611b995760405162461bcd60e51b815260206004820152601060248201526f14185d5cd8589b194e881c185d5cd95960821b60448201526064016108d2565b565b611ba3611b53565b6001805460ff1916811790557f62e78cea01bee320cd4e420270b5ea74000d11b0c9f74754ebdbfc544b05a25833611b36565b6002805403611c275760405162461bcd60e51b815260206004820152601f60248201527f5265656e7472616e637947756172643a207265656e7472616e742063616c6c0060448201526064016108d2565b60028055565b611c378282611003565b6108e557611c4481611ccf565b611c4f836020611ce1565b604051602001611c6092919061232d565b60408051601f198184030181529082905262461bcd60e51b82526108d2916004016123a2565b60015460ff16611b995760405162461bcd60e51b815260206004820152601460248201527314185d5cd8589b194e881b9bdd081c185d5cd95960621b60448201526064016108d2565b60606108366001600160a01b03831660145b60606000611cf08360026123d5565b611cfb9060026122a8565b67ffffffffffffffff811115611d1357611d136123ec565b6040519080825280601f01601f191660200182016040528015611d3d576020820181803683370190505b509050600360fc1b81600081518110611d5857611d58612402565b60200101906001600160f81b031916908160001a905350600f60fb1b81600181518110611d8757611d87612402565b60200101906001600160f81b031916908160001a9053506000611dab8460026123d5565b611db69060016122a8565b90505b6001811115611e2e576f181899199a1a9b1b9c1cb0b131b232b360811b85600f1660108110611dea57611dea612402565b1a60f81b828281518110611e0057611e00612402565b60200101906001600160f81b031916908160001a90535060049490941c93611e2781612418565b9050611db9565b508315610b455760405162461bcd60e51b815260206004820181905260248201527f537472696e67733a20686578206c656e67746820696e73756666696369656e7460448201526064016108d2565b600060208284031215611e8f57600080fd5b81356001600160e01b031981168114610b4557600080fd5b60008060408385031215611eba57600080fd5b82359150602083013560ff81168114611ed257600080fd5b809150509250929050565b600060208284031215611eef57600080fd5b5035919050565b634e487b7160e01b600052602160045260246000fd5b60058110611f2a57634e487b7160e01b600052602160045260246000fd5b9052565b8d8152602081018d9052604081018c9052606081018b90526001600160a01b038a16608082015260a0810189905260c0810188905260e081018790526101a08101611f7d610100830188611f0c565b60ff861661012083015260ff851661014083015283610160830152826101808301529e9d5050505050505050505050505050565b80356001600160a01b0381168114611fc857600080fd5b919050565b60008060408385031215611fe057600080fd5b82359150611ff060208401611fb1565b90509250929050565b600080600080600060a0868803121561201157600080fd5b85359450602086013593506040860135925061202f60608701611fb1565b949793965091946080013592915050565b6000806040838503121561205357600080fd5b50508035926020909101359150565b6000806040838503121561207557600080fd5b61207e83611fb1565b946020939093013593505050565b60006020828403121561209e57600080fd5b610b4582611fb1565b6020808252825182820181905260009190848201906040850190845b818110156120df578351835292840192918401916001016120c3565b50909695505050505050565b60008060006060848603121561210057600080fd5b505081359360208301359350604090920135919050565b60008060006040848603121561212c57600080fd5b83359250602084013567ffffffffffffffff8082111561214b57600080fd5b818601915086601f83011261215f57600080fd5b81358181111561216e57600080fd5b87602082850101111561218057600080fd5b6020830194508093505050509250925092565b60006101a0820190508251825260208301516020830152604083015160408301526060830151606083015260808301516121d860808401826001600160a01b03169052565b5060a083015160a083015260c083015160c083015260e083015160e08301526101008084015161220a82850182611f0c565b50506101208381015160ff81168483015250506101408381015160ff8116848301525050610160838101519083015261018092830151929091019190915290565b634e487b7160e01b600052601160045260246000fd5b6000600182016122735761227361224b565b5060010190565b818103818111156108365761083661224b565b6040810161229b8285611f0c565b610b456020830184611f0c565b808201808211156108365761083661224b565b600060ff821660ff81036122d1576122d161224b565b60010192915050565b60208152816020820152818360408301376000818301604090810191909152601f909201601f19160101919050565b60005b8381101561232457818101518382015260200161230c565b50506000910152565b7f416363657373436f6e74726f6c3a206163636f756e7420000000000000000000815260008351612365816017850160208801612309565b7001034b99036b4b9b9b4b733903937b6329607d1b6017918401918201528351612396816028840160208801612309565b01602801949350505050565b60208152600082518060208401526123c1816040850160208701612309565b601f01601f19169190910160400192915050565b80820281158282048414176108365761083661224b565b634e487b7160e01b600052604160045260246000fd5b634e487b7160e01b600052603260045260246000fd5b6000816124275761242761224b565b50600019019056feb19546dff01e856fb3f010c267a7b1c60363cf8a4664e21cc89c26224620214ea2646970667358221220a73a3ce4903ee0cf86d11fbbd9391830e8498832d3ec19e7b76ada30a8b1e6d364736f6c63430008180033b19546dff01e856fb3f010c267a7b1c60363cf8a4664e21cc89c26224620214e",
  "linkReferences": {},
  "deployedLinkReferences": {}
}